{
  "_format": "hh-sol-artifact-1",
  "contractName": "TicketSystem",
  "sourceName": "contracts/TicketSystem.sol",
  "abi": [
    {
      "inputs": [
        {
          "internalType": "uint256",
          "name": "_priceToPay",
          "type": "uint256"
        }
      ],
      "stateMutability": "payable",
      "type": "constructor"
    },
    {
      "anonymous": false,
      "inputs": [
        {
          "indexed": true,
          "internalType": "address",
          "name": "owner",
          "type": "address"
        },
        {
          "indexed": true,
          "internalType": "address",
          "name": "approved",
          "type": "address"
        },
        {
          "indexed": true,
          "internalType": "uint256",
          "name": "tokenId",
          "type": "uint256"
        }
      ],
      "name": "Approval",
      "type": "event"
    },
    {
      "anonymous": false,
      "inputs": [
        {
          "indexed": true,
          "internalType": "address",
          "name": "owner",
          "type": "address"
        },
        {
          "indexed": true,
          "internalType": "address",
          "name": "operator",
          "type": "address"
        },
        {
          "indexed": false,
          "internalType": "bool",
          "name": "approved",
          "type": "bool"
        }
      ],
      "name": "ApprovalForAll",
      "type": "event"
    },
    {
      "anonymous": false,
      "inputs": [
        {
          "indexed": true,
          "internalType": "address",
          "name": "previousOwner",
          "type": "address"
        },
        {
          "indexed": true,
          "internalType": "address",
          "name": "newOwner",
          "type": "address"
        }
      ],
      "name": "OwnershipTransferred",
      "type": "event"
    },
    {
      "anonymous": false,
      "inputs": [
        {
          "indexed": true,
          "internalType": "address",
          "name": "from",
          "type": "address"
        },
        {
          "indexed": true,
          "internalType": "address",
          "name": "to",
          "type": "address"
        },
        {
          "indexed": true,
          "internalType": "uint256",
          "name": "tokenId",
          "type": "uint256"
        }
      ],
      "name": "Transfer",
      "type": "event"
    },
    {
      "inputs": [
        {
          "internalType": "address",
          "name": "to",
          "type": "address"
        },
        {
          "internalType": "uint256",
          "name": "tokenId",
          "type": "uint256"
        }
      ],
      "name": "approve",
      "outputs": [],
      "stateMutability": "nonpayable",
      "type": "function"
    },
    {
      "inputs": [
        {
          "internalType": "address",
          "name": "owner",
          "type": "address"
        }
      ],
      "name": "balanceOf",
      "outputs": [
        {
          "internalType": "uint256",
          "name": "",
          "type": "uint256"
        }
      ],
      "stateMutability": "view",
      "type": "function"
    },
    {
      "inputs": [],
      "name": "buyToken",
      "outputs": [],
      "stateMutability": "nonpayable",
      "type": "function"
    },
    {
      "inputs": [
        {
          "internalType": "uint256",
          "name": "",
          "type": "uint256"
        }
      ],
      "name": "clientData",
      "outputs": [
        {
          "internalType": "string",
          "name": "fullName",
          "type": "string"
        },
        {
          "internalType": "string",
          "name": "fisicalAddress",
          "type": "string"
        },
        {
          "internalType": "string",
          "name": "telefone",
          "type": "string"
        }
      ],
      "stateMutability": "view",
      "type": "function"
    },
    {
      "inputs": [],
      "name": "contractAddress",
      "outputs": [
        {
          "internalType": "address payable",
          "name": "",
          "type": "address"
        }
      ],
      "stateMutability": "view",
      "type": "function"
    },
    {
      "inputs": [
        {
          "internalType": "string",
          "name": "_fullName",
          "type": "string"
        },
        {
          "internalType": "string",
          "name": "_fisicalAddress",
          "type": "string"
        },
        {
          "internalType": "string",
          "name": "_telefone",
          "type": "string"
        }
      ],
      "name": "createClient",
      "outputs": [],
      "stateMutability": "nonpayable",
      "type": "function"
    },
    {
      "inputs": [
        {
          "internalType": "address",
          "name": "_account",
          "type": "address"
        },
        {
          "internalType": "uint256",
          "name": "_tokenId",
          "type": "uint256"
        }
      ],
      "name": "createTokenDNA",
      "outputs": [
        {
          "internalType": "uint256",
          "name": "",
          "type": "uint256"
        }
      ],
      "stateMutability": "pure",
      "type": "function"
    },
    {
      "inputs": [
        {
          "internalType": "uint256",
          "name": "tokenId",
          "type": "uint256"
        }
      ],
      "name": "getApproved",
      "outputs": [
        {
          "internalType": "address",
          "name": "",
          "type": "address"
        }
      ],
      "stateMutability": "view",
      "type": "function"
    },
    {
      "inputs": [],
      "name": "getBalance",
      "outputs": [
        {
          "internalType": "uint256",
          "name": "",
          "type": "uint256"
        }
      ],
      "stateMutability": "view",
      "type": "function"
    },
    {
      "inputs": [
        {
          "internalType": "address",
          "name": "owner",
          "type": "address"
        },
        {
          "internalType": "address",
          "name": "operator",
          "type": "address"
        }
      ],
      "name": "isApprovedForAll",
      "outputs": [
        {
          "internalType": "bool",
          "name": "",
          "type": "bool"
        }
      ],
      "stateMutability": "view",
      "type": "function"
    },
    {
      "inputs": [],
      "name": "name",
      "outputs": [
        {
          "internalType": "string",
          "name": "",
          "type": "string"
        }
      ],
      "stateMutability": "view",
      "type": "function"
    },
    {
      "inputs": [],
      "name": "owner",
      "outputs": [
        {
          "internalType": "address",
          "name": "",
          "type": "address"
        }
      ],
      "stateMutability": "view",
      "type": "function"
    },
    {
      "inputs": [],
      "name": "ownerAddress",
      "outputs": [
        {
          "internalType": "address payable",
          "name": "",
          "type": "address"
        }
      ],
      "stateMutability": "view",
      "type": "function"
    },
    {
      "inputs": [
        {
          "internalType": "uint256",
          "name": "tokenId",
          "type": "uint256"
        }
      ],
      "name": "ownerOf",
      "outputs": [
        {
          "internalType": "address",
          "name": "",
          "type": "address"
        }
      ],
      "stateMutability": "view",
      "type": "function"
    },
    {
      "inputs": [],
      "name": "priceToPay",
      "outputs": [
        {
          "internalType": "uint256",
          "name": "",
          "type": "uint256"
        }
      ],
      "stateMutability": "view",
      "type": "function"
    },
    {
      "inputs": [
        {
          "internalType": "uint256",
          "name": "tokenId",
          "type": "uint256"
        }
      ],
      "name": "redeem",
      "outputs": [],
      "stateMutability": "nonpayable",
      "type": "function"
    },
    {
      "inputs": [],
      "name": "renounceOwnership",
      "outputs": [],
      "stateMutability": "nonpayable",
      "type": "function"
    },
    {
      "inputs": [],
      "name": "safeMint",
      "outputs": [],
      "stateMutability": "nonpayable",
      "type": "function"
    },
    {
      "inputs": [
        {
          "internalType": "address",
          "name": "from",
          "type": "address"
        },
        {
          "internalType": "address",
          "name": "to",
          "type": "address"
        },
        {
          "internalType": "uint256",
          "name": "tokenId",
          "type": "uint256"
        }
      ],
      "name": "safeTransferFrom",
      "outputs": [],
      "stateMutability": "nonpayable",
      "type": "function"
    },
    {
      "inputs": [
        {
          "internalType": "address",
          "name": "from",
          "type": "address"
        },
        {
          "internalType": "address",
          "name": "to",
          "type": "address"
        },
        {
          "internalType": "uint256",
          "name": "tokenId",
          "type": "uint256"
        },
        {
          "internalType": "bytes",
          "name": "data",
          "type": "bytes"
        }
      ],
      "name": "safeTransferFrom",
      "outputs": [],
      "stateMutability": "nonpayable",
      "type": "function"
    },
    {
      "inputs": [],
      "name": "sendClient",
      "outputs": [
        {
          "components": [
            {
              "internalType": "string",
              "name": "fullName",
              "type": "string"
            },
            {
              "internalType": "string",
              "name": "fisicalAddress",
              "type": "string"
            },
            {
              "internalType": "string",
              "name": "telefone",
              "type": "string"
            }
          ],
          "internalType": "struct TicketSystem.client",
          "name": "",
          "type": "tuple"
        }
      ],
      "stateMutability": "view",
      "type": "function"
    },
    {
      "inputs": [
        {
          "internalType": "address payable",
          "name": "_to",
          "type": "address"
        },
        {
          "internalType": "uint256",
          "name": "_priceToPay",
          "type": "uint256"
        }
      ],
      "name": "sendEther",
      "outputs": [
        {
          "internalType": "bool",
          "name": "",
          "type": "bool"
        }
      ],
      "stateMutability": "payable",
      "type": "function"
    },
    {
      "inputs": [
        {
          "internalType": "address",
          "name": "operator",
          "type": "address"
        },
        {
          "internalType": "bool",
          "name": "approved",
          "type": "bool"
        }
      ],
      "name": "setApprovalForAll",
      "outputs": [],
      "stateMutability": "nonpayable",
      "type": "function"
    },
    {
      "inputs": [
        {
          "internalType": "uint256",
          "name": "_priceToPay",
          "type": "uint256"
        }
      ],
      "name": "setPriceToPay",
      "outputs": [],
      "stateMutability": "nonpayable",
      "type": "function"
    },
    {
      "inputs": [
        {
          "internalType": "bytes4",
          "name": "interfaceId",
          "type": "bytes4"
        }
      ],
      "name": "supportsInterface",
      "outputs": [
        {
          "internalType": "bool",
          "name": "",
          "type": "bool"
        }
      ],
      "stateMutability": "view",
      "type": "function"
    },
    {
      "inputs": [],
      "name": "symbol",
      "outputs": [
        {
          "internalType": "string",
          "name": "",
          "type": "string"
        }
      ],
      "stateMutability": "view",
      "type": "function"
    },
    {
      "inputs": [
        {
          "internalType": "uint256",
          "name": "index",
          "type": "uint256"
        }
      ],
      "name": "tokenByIndex",
      "outputs": [
        {
          "internalType": "uint256",
          "name": "",
          "type": "uint256"
        }
      ],
      "stateMutability": "view",
      "type": "function"
    },
    {
      "inputs": [
        {
          "internalType": "address",
          "name": "owner",
          "type": "address"
        },
        {
          "internalType": "uint256",
          "name": "index",
          "type": "uint256"
        }
      ],
      "name": "tokenOfOwnerByIndex",
      "outputs": [
        {
          "internalType": "uint256",
          "name": "",
          "type": "uint256"
        }
      ],
      "stateMutability": "view",
      "type": "function"
    },
    {
      "inputs": [
        {
          "internalType": "uint256",
          "name": "",
          "type": "uint256"
        }
      ],
      "name": "tokenSerial",
      "outputs": [
        {
          "internalType": "uint256",
          "name": "",
          "type": "uint256"
        }
      ],
      "stateMutability": "view",
      "type": "function"
    },
    {
      "inputs": [
        {
          "internalType": "uint256",
          "name": "tokenId",
          "type": "uint256"
        }
      ],
      "name": "tokenURI",
      "outputs": [
        {
          "internalType": "string",
          "name": "",
          "type": "string"
        }
      ],
      "stateMutability": "view",
      "type": "function"
    },
    {
      "inputs": [],
      "name": "totalSupply",
      "outputs": [
        {
          "internalType": "uint256",
          "name": "",
          "type": "uint256"
        }
      ],
      "stateMutability": "view",
      "type": "function"
    },
    {
      "inputs": [
        {
          "internalType": "address",
          "name": "from",
          "type": "address"
        },
        {
          "internalType": "address",
          "name": "to",
          "type": "address"
        },
        {
          "internalType": "uint256",
          "name": "tokenId",
          "type": "uint256"
        }
      ],
      "name": "transferFrom",
      "outputs": [],
      "stateMutability": "nonpayable",
      "type": "function"
    },
    {
      "inputs": [
        {
          "internalType": "address",
          "name": "newOwner",
          "type": "address"
        }
      ],
      "name": "transferOwnership",
      "outputs": [],
      "stateMutability": "nonpayable",
      "type": "function"
    },
    {
      "inputs": [],
      "name": "withdrawBalance",
      "outputs": [],
      "stateMutability": "nonpayable",
      "type": "function"
    },
    {
      "inputs": [
        {
          "internalType": "address payable",
          "name": "_to",
          "type": "address"
        },
        {
          "internalType": "uint256",
          "name": "_amount",
          "type": "uint256"
        }
      ],
      "name": "withdrawEther",
      "outputs": [
        {
          "internalType": "bool",
          "name": "",
          "type": "bool"
        }
      ],
      "stateMutability": "payable",
      "type": "function"
    },
    {
      "stateMutability": "payable",
      "type": "receive"
    }
  ],
  "bytecode": "0x60806040526000600b60006101000a81548160ff0219169083151502179055506040516200561738038062005617833981810160405281019062000044919062000294565b6040518060400160405280600981526020017f546f6b656e4e616d6500000000000000000000000000000000000000000000008152506040518060400160405280600381526020017f544e4d00000000000000000000000000000000000000000000000000000000008152508160009081620000c1919062000536565b508060019081620000d3919062000536565b505050620000f6620000ea6200018660201b60201c565b6200018e60201b60201c565b8060118190555033601260006101000a81548173ffffffffffffffffffffffffffffffffffffffff021916908373ffffffffffffffffffffffffffffffffffffffff16021790555030601360006101000a81548173ffffffffffffffffffffffffffffffffffffffff021916908373ffffffffffffffffffffffffffffffffffffffff160217905550506200061d565b600033905090565b6000600660009054906101000a900473ffffffffffffffffffffffffffffffffffffffff16905081600660006101000a81548173ffffffffffffffffffffffffffffffffffffffff021916908373ffffffffffffffffffffffffffffffffffffffff1602179055508173ffffffffffffffffffffffffffffffffffffffff168173ffffffffffffffffffffffffffffffffffffffff167f8be0079c531659141344cd1fd0a4f28419497f9722a3daafe3b4186f6b6457e060405160405180910390a35050565b600080fd5b6000819050919050565b6200026e8162000259565b81146200027a57600080fd5b50565b6000815190506200028e8162000263565b92915050565b600060208284031215620002ad57620002ac62000254565b5b6000620002bd848285016200027d565b91505092915050565b600081519050919050565b7f4e487b7100000000000000000000000000000000000000000000000000000000600052604160045260246000fd5b7f4e487b7100000000000000000000000000000000000000000000000000000000600052602260045260246000fd5b600060028204905060018216806200034857607f821691505b6020821081036200035e576200035d62000300565b5b50919050565b60008190508160005260206000209050919050565b60006020601f8301049050919050565b600082821b905092915050565b600060088302620003c87fffffffffffffffffffffffffffffffffffffffffffffffffffffffffffffffff8262000389565b620003d4868362000389565b95508019841693508086168417925050509392505050565b6000819050919050565b600062000417620004116200040b8462000259565b620003ec565b62000259565b9050919050565b6000819050919050565b6200043383620003f6565b6200044b62000442826200041e565b84845462000396565b825550505050565b600090565b6200046262000453565b6200046f81848462000428565b505050565b5b8181101562000497576200048b60008262000458565b60018101905062000475565b5050565b601f821115620004e657620004b08162000364565b620004bb8462000379565b81016020851015620004cb578190505b620004e3620004da8562000379565b83018262000474565b50505b505050565b600082821c905092915050565b60006200050b60001984600802620004eb565b1980831691505092915050565b6000620005268383620004f8565b9150826002028217905092915050565b6200054182620002c6565b67ffffffffffffffff8111156200055d576200055c620002d1565b5b6200056982546200032f565b620005768282856200049b565b600060209050601f831160018114620005ae576000841562000599578287015190505b620005a5858262000518565b86555062000615565b601f198416620005be8662000364565b60005b82811015620005e857848901518255600182019150602085019450602081019050620005c1565b8683101562000608578489015162000604601f891682620004f8565b8355505b6001600288020188555050505b505050505050565b614fea806200062d6000396000f3fe6080604052600436106102085760003560e01c80636871ee4011610118578063a4821719116100a0578063c87b56dd1161006f578063c87b56dd1461076e578063db006a75146107ab578063e985e9c5146107d4578063f2fde38b14610811578063f6b4dfb41461083a5761020f565b8063a4821719146106bf578063b88d4fde146106d6578063bd8edf15146106ff578063c1756a2c1461073e5761020f565b80638da5cb5b116100e75780638da5cb5b146105d85780638f84aa091461060357806395d89b411461062e5780639b3ee2c314610659578063a22cb465146106965761020f565b80636871ee401461054257806370a0823114610559578063715018a614610596578063760839a0146105ad5761020f565b806323b872dd1161019b57806342842e0e1161016a57806342842e0e146104585780634f6ccce714610481578063522f6815146104be5780635fd8c710146104ee5780636352211e146105055761020f565b806323b872dd146103a05780632eed7269146103c95780632f745c59146103f2578063351bec6b1461042f5761020f565b8063098215e5116101d7578063098215e5146102e257806312065fe01461030d578063177e40251461033857806318160ddd146103755761020f565b806301ffc9a71461021457806306fdde0314610251578063081812fc1461027c578063095ea7b3146102b95761020f565b3661020f57005b600080fd5b34801561022057600080fd5b5061023b60048036038101906102369190613333565b610865565b604051610248919061337b565b60405180910390f35b34801561025d57600080fd5b50610266610877565b6040516102739190613426565b60405180910390f35b34801561028857600080fd5b506102a3600480360381019061029e919061347e565b610909565b6040516102b091906134ec565b60405180910390f35b3480156102c557600080fd5b506102e060048036038101906102db9190613533565b61094f565b005b3480156102ee57600080fd5b506102f7610a66565b6040516103049190613582565b60405180910390f35b34801561031957600080fd5b50610322610a6c565b60405161032f9190613582565b60405180910390f35b34801561034457600080fd5b5061035f600480360381019061035a9190613533565b610a74565b60405161036c9190613582565b60405180910390f35b34801561038157600080fd5b5061038a610ada565b6040516103979190613582565b60405180910390f35b3480156103ac57600080fd5b506103c760048036038101906103c2919061359d565b610ae7565b005b3480156103d557600080fd5b506103f060048036038101906103eb9190613725565b610b47565b005b3480156103fe57600080fd5b5061041960048036038101906104149190613533565b610be0565b6040516104269190613582565b60405180910390f35b34801561043b57600080fd5b506104566004803603810190610451919061347e565b610c85565b005b34801561046457600080fd5b5061047f600480360381019061047a919061359d565b610c97565b005b34801561048d57600080fd5b506104a860048036038101906104a3919061347e565b610cb7565b6040516104b59190613582565b60405180910390f35b6104d860048036038101906104d3919061380a565b610d28565b6040516104e5919061337b565b60405180910390f35b3480156104fa57600080fd5b50610503610ea8565b005b34801561051157600080fd5b5061052c6004803603810190610527919061347e565b610f47565b60405161053991906134ec565b60405180910390f35b34801561054e57600080fd5b50610557610fcd565b005b34801561056557600080fd5b50610580600480360381019061057b919061384a565b61101b565b60405161058d9190613582565b60405180910390f35b3480156105a257600080fd5b506105ab6110d2565b005b3480156105b957600080fd5b506105c26110e6565b6040516105cf919061391f565b60405180910390f35b3480156105e457600080fd5b506105ed6112b6565b6040516105fa91906134ec565b60405180910390f35b34801561060f57600080fd5b506106186112e0565b6040516106259190613950565b60405180910390f35b34801561063a57600080fd5b50610643611306565b6040516106509190613426565b60405180910390f35b34801561066557600080fd5b50610680600480360381019061067b919061347e565b611398565b60405161068d9190613582565b60405180910390f35b3480156106a257600080fd5b506106bd60048036038101906106b89190613997565b6113b0565b005b3480156106cb57600080fd5b506106d46113c6565b005b3480156106e257600080fd5b506106fd60048036038101906106f89190613a78565b61147f565b005b34801561070b57600080fd5b506107266004803603810190610721919061347e565b6114e1565b60405161073593929190613afb565b60405180910390f35b6107586004803603810190610753919061380a565b6116a3565b604051610765919061337b565b60405180910390f35b34801561077a57600080fd5b506107956004803603810190610790919061347e565b611823565b6040516107a29190613426565b60405180910390f35b3480156107b757600080fd5b506107d260048036038101906107cd919061347e565b6118c3565b005b3480156107e057600080fd5b506107fb60048036038101906107f69190613b47565b6119c7565b604051610808919061337b565b60405180910390f35b34801561081d57600080fd5b506108386004803603810190610833919061384a565b611a5b565b005b34801561084657600080fd5b5061084f611ade565b60405161085c9190613950565b60405180910390f35b600061087082611b04565b9050919050565b60606000805461088690613bb6565b80601f01602080910402602001604051908101604052809291908181526020018280546108b290613bb6565b80156108ff5780601f106108d4576101008083540402835291602001916108ff565b820191906000526020600020905b8154815290600101906020018083116108e257829003601f168201915b5050505050905090565b600061091482611b7e565b6004600083815260200190815260200160002060009054906101000a900473ffffffffffffffffffffffffffffffffffffffff169050919050565b600061095a82610f47565b90508073ffffffffffffffffffffffffffffffffffffffff168373ffffffffffffffffffffffffffffffffffffffff16036109ca576040517f08c379a00000000000000000000000000000000000000000000000000000000081526004016109c190613c59565b60405180910390fd5b8073ffffffffffffffffffffffffffffffffffffffff166109e9611bc9565b73ffffffffffffffffffffffffffffffffffffffff161480610a185750610a1781610a12611bc9565b6119c7565b5b610a57576040517f08c379a0000000000000000000000000000000000000000000000000000000008152600401610a4e90613ceb565b60405180910390fd5b610a618383611bd1565b505050565b60115481565b600047905090565b6000808373ffffffffffffffffffffffffffffffffffffffff1683610a999190613d3a565b9050600081604051602001610aae9190613d8f565b60405160208183030381529060405290506000818051906020012090508060001c935050505092915050565b6000600980549050905090565b610af8610af2611bc9565b82611c8a565b610b37576040517f08c379a0000000000000000000000000000000000000000000000000000000008152600401610b2e90613e1c565b60405180910390fd5b610b42838383611d1f565b505050565b610b4f612018565b6000610b5b600d612096565b9050604051806060016040528085815260200184815260200183815250601060008381526020019081526020016000206000820151816000019081610ba09190613fe8565b506020820151816001019081610bb69190613fe8565b506040820151816002019081610bcc9190613fe8565b50905050610bda600d6120a4565b50505050565b6000610beb8361101b565b8210610c2c576040517f08c379a0000000000000000000000000000000000000000000000000000000008152600401610c239061412c565b60405180910390fd5b600760008473ffffffffffffffffffffffffffffffffffffffff1673ffffffffffffffffffffffffffffffffffffffff168152602001908152602001600020600083815260200190815260200160002054905092915050565b610c8d612018565b8060118190555050565b610cb28383836040518060200160405280600081525061147f565b505050565b6000610cc1610ada565b8210610d02576040517f08c379a0000000000000000000000000000000000000000000000000000000008152600401610cf9906141be565b60405180910390fd5b60098281548110610d1657610d156141de565b5b90600052602060002001549050919050565b6000600b60009054906101000a900460ff1615610d7a576040517f08c379a0000000000000000000000000000000000000000000000000000000008152600401610d7190614259565b60405180910390fd5b6001600b60006101000a81548160ff021916908315150217905550813414610dd7576040517f08c379a0000000000000000000000000000000000000000000000000000000008152600401610dce906142eb565b60405180910390fd5b60008373ffffffffffffffffffffffffffffffffffffffff1683604051610dfd9061433c565b60006040518083038185875af1925050503d8060008114610e3a576040519150601f19603f3d011682016040523d82523d6000602084013e610e3f565b606091505b5050905080610e83576040517f08c379a0000000000000000000000000000000000000000000000000000000008152600401610e7a9061439d565b60405180910390fd5b6000600b60006101000a81548160ff0219169083151502179055508091505092915050565b610eb0612018565b6000601360009054906101000a900473ffffffffffffffffffffffffffffffffffffffff1673ffffffffffffffffffffffffffffffffffffffff1631905060006064600a83610eff91906143bd565b610f09919061442e565b82610f14919061445f565b9050610f42601260009054906101000a900473ffffffffffffffffffffffffffffffffffffffff1682610d28565b505050565b600080610f53836120ba565b9050600073ffffffffffffffffffffffffffffffffffffffff168173ffffffffffffffffffffffffffffffffffffffff1603610fc4576040517f08c379a0000000000000000000000000000000000000000000000000000000008152600401610fbb906144df565b60405180910390fd5b80915050919050565b610fd5612018565b6000610fe1600c612096565b9050610fed3382610a74565b600f60008381526020019081526020016000208190555061100e33826120f7565b611018600c6120a4565b50565b60008073ffffffffffffffffffffffffffffffffffffffff168273ffffffffffffffffffffffffffffffffffffffff160361108b576040517f08c379a000000000000000000000000000000000000000000000000000000000815260040161108290614571565b60405180910390fd5b600360008373ffffffffffffffffffffffffffffffffffffffff1673ffffffffffffffffffffffffffffffffffffffff168152602001908152602001600020549050919050565b6110da612018565b6110e46000612115565b565b6110ee6132a6565b601460405180606001604052908160008201805461110b90613bb6565b80601f016020809104026020016040519081016040528092919081815260200182805461113790613bb6565b80156111845780601f1061115957610100808354040283529160200191611184565b820191906000526020600020905b81548152906001019060200180831161116757829003601f168201915b5050505050815260200160018201805461119d90613bb6565b80601f01602080910402602001604051908101604052809291908181526020018280546111c990613bb6565b80156112165780601f106111eb57610100808354040283529160200191611216565b820191906000526020600020905b8154815290600101906020018083116111f957829003601f168201915b5050505050815260200160028201805461122f90613bb6565b80601f016020809104026020016040519081016040528092919081815260200182805461125b90613bb6565b80156112a85780601f1061127d576101008083540402835291602001916112a8565b820191906000526020600020905b81548152906001019060200180831161128b57829003601f168201915b505050505081525050905090565b6000600660009054906101000a900473ffffffffffffffffffffffffffffffffffffffff16905090565b601260009054906101000a900473ffffffffffffffffffffffffffffffffffffffff1681565b60606001805461131590613bb6565b80601f016020809104026020016040519081016040528092919081815260200182805461134190613bb6565b801561138e5780601f106113635761010080835404028352916020019161138e565b820191906000526020600020905b81548152906001019060200180831161137157829003601f168201915b5050505050905090565b600f6020528060005260406000206000915090505481565b6113c26113bb611bc9565b83836121db565b5050565b60003390506113f9601360009054906101000a900473ffffffffffffffffffffffffffffffffffffffff166011546116a3565b611438576040517f08c379a000000000000000000000000000000000000000000000000000000000815260040161142f90614603565b60405180910390fd5b6000611444600c612096565b90506114508282610a74565b600f60008381526020019081526020016000208190555061147182826120f7565b61147b600c6120a4565b5050565b61149061148a611bc9565b83611c8a565b6114cf576040517f08c379a00000000000000000000000000000000000000000000000000000000081526004016114c690613e1c565b60405180910390fd5b6114db84848484612347565b50505050565b601060205280600052604060002060009150905080600001805461150490613bb6565b80601f016020809104026020016040519081016040528092919081815260200182805461153090613bb6565b801561157d5780601f106115525761010080835404028352916020019161157d565b820191906000526020600020905b81548152906001019060200180831161156057829003601f168201915b50505050509080600101805461159290613bb6565b80601f01602080910402602001604051908101604052809291908181526020018280546115be90613bb6565b801561160b5780601f106115e05761010080835404028352916020019161160b565b820191906000526020600020905b8154815290600101906020018083116115ee57829003601f168201915b50505050509080600201805461162090613bb6565b80601f016020809104026020016040519081016040528092919081815260200182805461164c90613bb6565b80156116995780601f1061166e57610100808354040283529160200191611699565b820191906000526020600020905b81548152906001019060200180831161167c57829003601f168201915b5050505050905083565b6000600b60009054906101000a900460ff16156116f5576040517f08c379a00000000000000000000000000000000000000000000000000000000081526004016116ec90614259565b60405180910390fd5b6001600b60006101000a81548160ff021916908315150217905550813414611752576040517f08c379a0000000000000000000000000000000000000000000000000000000008152600401611749906142eb565b60405180910390fd5b60008373ffffffffffffffffffffffffffffffffffffffff16836040516117789061433c565b60006040518083038185875af1925050503d80600081146117b5576040519150601f19603f3d011682016040523d82523d6000602084013e6117ba565b606091505b50509050806117fe576040517f08c379a00000000000000000000000000000000000000000000000000000000081526004016117f59061466f565b60405180910390fd5b6000600b60006101000a81548160ff0219169083151502179055508091505092915050565b606061182e826123a3565b61186d576040517f08c379a000000000000000000000000000000000000000000000000000000000815260040161186490614701565b60405180910390fd5b6000600f600084815260200190815260200160002054905060006118b7611893836123e4565b6040516020016118a391906147f5565b6040516020818303038152906040526124b2565b90508092505050919050565b6118cc816123a3565b801561190c57503373ffffffffffffffffffffffffffffffffffffffff166118f46000610f47565b73ffffffffffffffffffffffffffffffffffffffff16145b61194b576040517f08c379a0000000000000000000000000000000000000000000000000000000008152600401611942906148ba565b60405180910390fd5b6000611957600e612096565b9050611963600e6120a4565b61196c82612615565b6010600082815260200190815260200160002060146000820181600001908161199591906148f0565b50600182018160010190816119aa91906148f0565b50600282018160020190816119bf91906148f0565b509050505050565b6000600560008473ffffffffffffffffffffffffffffffffffffffff1673ffffffffffffffffffffffffffffffffffffffff16815260200190815260200160002060008373ffffffffffffffffffffffffffffffffffffffff1673ffffffffffffffffffffffffffffffffffffffff16815260200190815260200160002060009054906101000a900460ff16905092915050565b611a63612018565b600073ffffffffffffffffffffffffffffffffffffffff168173ffffffffffffffffffffffffffffffffffffffff1603611ad2576040517f08c379a0000000000000000000000000000000000000000000000000000000008152600401611ac990614a4a565b60405180910390fd5b611adb81612115565b50565b601360009054906101000a900473ffffffffffffffffffffffffffffffffffffffff1681565b60007f780e9d63000000000000000000000000000000000000000000000000000000007bffffffffffffffffffffffffffffffffffffffffffffffffffffffff1916827bffffffffffffffffffffffffffffffffffffffffffffffffffffffff19161480611b775750611b7682612763565b5b9050919050565b611b87816123a3565b611bc6576040517f08c379a0000000000000000000000000000000000000000000000000000000008152600401611bbd906144df565b60405180910390fd5b50565b600033905090565b816004600083815260200190815260200160002060006101000a81548173ffffffffffffffffffffffffffffffffffffffff021916908373ffffffffffffffffffffffffffffffffffffffff160217905550808273ffffffffffffffffffffffffffffffffffffffff16611c4483610f47565b73ffffffffffffffffffffffffffffffffffffffff167f8c5be1e5ebec7d5bd14f71427d1e84f3dd0314c0f7b2291e5b200ac8c7c3b92560405160405180910390a45050565b600080611c9683610f47565b90508073ffffffffffffffffffffffffffffffffffffffff168473ffffffffffffffffffffffffffffffffffffffff161480611cd85750611cd781856119c7565b5b80611d1657508373ffffffffffffffffffffffffffffffffffffffff16611cfe84610909565b73ffffffffffffffffffffffffffffffffffffffff16145b91505092915050565b8273ffffffffffffffffffffffffffffffffffffffff16611d3f82610f47565b73ffffffffffffffffffffffffffffffffffffffff1614611d95576040517f08c379a0000000000000000000000000000000000000000000000000000000008152600401611d8c90614adc565b60405180910390fd5b600073ffffffffffffffffffffffffffffffffffffffff168273ffffffffffffffffffffffffffffffffffffffff1603611e04576040517f08c379a0000000000000000000000000000000000000000000000000000000008152600401611dfb90614b6e565b60405180910390fd5b611e118383836001612845565b8273ffffffffffffffffffffffffffffffffffffffff16611e3182610f47565b73ffffffffffffffffffffffffffffffffffffffff1614611e87576040517f08c379a0000000000000000000000000000000000000000000000000000000008152600401611e7e90614adc565b60405180910390fd5b6004600082815260200190815260200160002060006101000a81549073ffffffffffffffffffffffffffffffffffffffff02191690556001600360008573ffffffffffffffffffffffffffffffffffffffff1673ffffffffffffffffffffffffffffffffffffffff168152602001908152602001600020600082825403925050819055506001600360008473ffffffffffffffffffffffffffffffffffffffff1673ffffffffffffffffffffffffffffffffffffffff16815260200190815260200160002060008282540192505081905550816002600083815260200190815260200160002060006101000a81548173ffffffffffffffffffffffffffffffffffffffff021916908373ffffffffffffffffffffffffffffffffffffffff160217905550808273ffffffffffffffffffffffffffffffffffffffff168473ffffffffffffffffffffffffffffffffffffffff167fddf252ad1be2c89b69c2b068fc378daa952ba7f163c4a11628f55a4df523b3ef60405160405180910390a46120138383836001612857565b505050565b612020611bc9565b73ffffffffffffffffffffffffffffffffffffffff1661203e6112b6565b73ffffffffffffffffffffffffffffffffffffffff1614612094576040517f08c379a000000000000000000000000000000000000000000000000000000000815260040161208b90614bda565b60405180910390fd5b565b600081600001549050919050565b6001816000016000828254019250508190555050565b60006002600083815260200190815260200160002060009054906101000a900473ffffffffffffffffffffffffffffffffffffffff169050919050565b61211182826040518060200160405280600081525061285d565b5050565b6000600660009054906101000a900473ffffffffffffffffffffffffffffffffffffffff16905081600660006101000a81548173ffffffffffffffffffffffffffffffffffffffff021916908373ffffffffffffffffffffffffffffffffffffffff1602179055508173ffffffffffffffffffffffffffffffffffffffff168173ffffffffffffffffffffffffffffffffffffffff167f8be0079c531659141344cd1fd0a4f28419497f9722a3daafe3b4186f6b6457e060405160405180910390a35050565b8173ffffffffffffffffffffffffffffffffffffffff168373ffffffffffffffffffffffffffffffffffffffff1603612249576040517f08c379a000000000000000000000000000000000000000000000000000000000815260040161224090614c46565b60405180910390fd5b80600560008573ffffffffffffffffffffffffffffffffffffffff1673ffffffffffffffffffffffffffffffffffffffff16815260200190815260200160002060008473ffffffffffffffffffffffffffffffffffffffff1673ffffffffffffffffffffffffffffffffffffffff16815260200190815260200160002060006101000a81548160ff0219169083151502179055508173ffffffffffffffffffffffffffffffffffffffff168373ffffffffffffffffffffffffffffffffffffffff167f17307eab39ab6107e8899845ad3d59bd9653f200f220920489ca2b5937696c318360405161233a919061337b565b60405180910390a3505050565b612352848484611d1f565b61235e848484846128b8565b61239d576040517f08c379a000000000000000000000000000000000000000000000000000000000815260040161239490614cd8565b60405180910390fd5b50505050565b60008073ffffffffffffffffffffffffffffffffffffffff166123c5836120ba565b73ffffffffffffffffffffffffffffffffffffffff1614159050919050565b6060600060016123f384612a3f565b01905060008167ffffffffffffffff811115612412576124116135fa565b5b6040519080825280601f01601f1916602001820160405280156124445781602001600182028036833780820191505090505b509050600082602001820190505b6001156124a7578080600190039150507f3031323334353637383961626364656600000000000000000000000000000000600a86061a8153600a858161249b5761249a6143ff565b5b04945060008503612452575b819350505050919050565b606060008251036124d457604051806020016040528060008152509050612610565b6000604051806060016040528060408152602001614f7560409139905060006003600285516125039190613d3a565b61250d919061442e565b600461251991906143bd565b67ffffffffffffffff811115612532576125316135fa565b5b6040519080825280601f01601f1916602001820160405280156125645781602001600182028036833780820191505090505b509050600182016020820185865187015b808210156125d0576003820191508151603f8160121c168501518453600184019350603f81600c1c168501518453600184019350603f8160061c168501518453600184019350603f8116850151845360018401935050612575565b50506003865106600181146125ec57600281146125ff57612607565b603d6001830353603d6002830353612607565b603d60018303535b50505080925050505b919050565b600061262082610f47565b9050612630816000846001612845565b61263982610f47565b90506004600083815260200190815260200160002060006101000a81549073ffffffffffffffffffffffffffffffffffffffff02191690556001600360008373ffffffffffffffffffffffffffffffffffffffff1673ffffffffffffffffffffffffffffffffffffffff168152602001908152602001600020600082825403925050819055506002600083815260200190815260200160002060006101000a81549073ffffffffffffffffffffffffffffffffffffffff021916905581600073ffffffffffffffffffffffffffffffffffffffff168273ffffffffffffffffffffffffffffffffffffffff167fddf252ad1be2c89b69c2b068fc378daa952ba7f163c4a11628f55a4df523b3ef60405160405180910390a461275f816000846001612857565b5050565b60007f80ac58cd000000000000000000000000000000000000000000000000000000007bffffffffffffffffffffffffffffffffffffffffffffffffffffffff1916827bffffffffffffffffffffffffffffffffffffffffffffffffffffffff1916148061282e57507f5b5e139f000000000000000000000000000000000000000000000000000000007bffffffffffffffffffffffffffffffffffffffffffffffffffffffff1916827bffffffffffffffffffffffffffffffffffffffffffffffffffffffff1916145b8061283e575061283d82612b92565b5b9050919050565b61285184848484612bfc565b50505050565b50505050565b6128678383612d5a565b61287460008484846128b8565b6128b3576040517f08c379a00000000000000000000000000000000000000000000000000000000081526004016128aa90614cd8565b60405180910390fd5b505050565b60006128d98473ffffffffffffffffffffffffffffffffffffffff16612f77565b15612a32578373ffffffffffffffffffffffffffffffffffffffff1663150b7a02612902611bc9565b8786866040518563ffffffff1660e01b81526004016129249493929190614d4d565b6020604051808303816000875af192505050801561296057506040513d601f19601f8201168201806040525081019061295d9190614dae565b60015b6129e2573d8060008114612990576040519150601f19603f3d011682016040523d82523d6000602084013e612995565b606091505b5060008151036129da576040517f08c379a00000000000000000000000000000000000000000000000000000000081526004016129d190614cd8565b60405180910390fd5b805181602001fd5b63150b7a0260e01b7bffffffffffffffffffffffffffffffffffffffffffffffffffffffff1916817bffffffffffffffffffffffffffffffffffffffffffffffffffffffff191614915050612a37565b600190505b949350505050565b600080600090507a184f03e93ff9f4daa797ed6e38ed64bf6a1f0100000000000000008310612a9d577a184f03e93ff9f4daa797ed6e38ed64bf6a1f0100000000000000008381612a9357612a926143ff565b5b0492506040810190505b6d04ee2d6d415b85acef81000000008310612ada576d04ee2d6d415b85acef81000000008381612ad057612acf6143ff565b5b0492506020810190505b662386f26fc100008310612b0957662386f26fc100008381612aff57612afe6143ff565b5b0492506010810190505b6305f5e1008310612b32576305f5e1008381612b2857612b276143ff565b5b0492506008810190505b6127108310612b57576127108381612b4d57612b4c6143ff565b5b0492506004810190505b60648310612b7a5760648381612b7057612b6f6143ff565b5b0492506002810190505b600a8310612b89576001810190505b80915050919050565b60007f01ffc9a7000000000000000000000000000000000000000000000000000000007bffffffffffffffffffffffffffffffffffffffffffffffffffffffff1916827bffffffffffffffffffffffffffffffffffffffffffffffffffffffff1916149050919050565b612c0884848484612f9a565b6001811115612c4c576040517f08c379a0000000000000000000000000000000000000000000000000000000008152600401612c4390614e4d565b60405180910390fd5b6000829050600073ffffffffffffffffffffffffffffffffffffffff168573ffffffffffffffffffffffffffffffffffffffff1603612c9357612c8e81612fa0565b612cd2565b8373ffffffffffffffffffffffffffffffffffffffff168573ffffffffffffffffffffffffffffffffffffffff1614612cd157612cd08582612fe9565b5b5b600073ffffffffffffffffffffffffffffffffffffffff168473ffffffffffffffffffffffffffffffffffffffff1603612d1457612d0f81613156565b612d53565b8473ffffffffffffffffffffffffffffffffffffffff168473ffffffffffffffffffffffffffffffffffffffff1614612d5257612d518482613227565b5b5b5050505050565b600073ffffffffffffffffffffffffffffffffffffffff168273ffffffffffffffffffffffffffffffffffffffff1603612dc9576040517f08c379a0000000000000000000000000000000000000000000000000000000008152600401612dc090614eb9565b60405180910390fd5b612dd2816123a3565b15612e12576040517f08c379a0000000000000000000000000000000000000000000000000000000008152600401612e0990614f25565b60405180910390fd5b612e20600083836001612845565b612e29816123a3565b15612e69576040517f08c379a0000000000000000000000000000000000000000000000000000000008152600401612e6090614f25565b60405180910390fd5b6001600360008473ffffffffffffffffffffffffffffffffffffffff1673ffffffffffffffffffffffffffffffffffffffff16815260200190815260200160002060008282540192505081905550816002600083815260200190815260200160002060006101000a81548173ffffffffffffffffffffffffffffffffffffffff021916908373ffffffffffffffffffffffffffffffffffffffff160217905550808273ffffffffffffffffffffffffffffffffffffffff16600073ffffffffffffffffffffffffffffffffffffffff167fddf252ad1be2c89b69c2b068fc378daa952ba7f163c4a11628f55a4df523b3ef60405160405180910390a4612f73600083836001612857565b5050565b6000808273ffffffffffffffffffffffffffffffffffffffff163b119050919050565b50505050565b600980549050600a600083815260200190815260200160002081905550600981908060018154018082558091505060019003906000526020600020016000909190919091505550565b60006001612ff68461101b565b613000919061445f565b90506000600860008481526020019081526020016000205490508181146130e5576000600760008673ffffffffffffffffffffffffffffffffffffffff1673ffffffffffffffffffffffffffffffffffffffff168152602001908152602001600020600084815260200190815260200160002054905080600760008773ffffffffffffffffffffffffffffffffffffffff1673ffffffffffffffffffffffffffffffffffffffff168152602001908152602001600020600084815260200190815260200160002081905550816008600083815260200190815260200160002081905550505b6008600084815260200190815260200160002060009055600760008573ffffffffffffffffffffffffffffffffffffffff1673ffffffffffffffffffffffffffffffffffffffff16815260200190815260200160002060008381526020019081526020016000206000905550505050565b6000600160098054905061316a919061445f565b90506000600a600084815260200190815260200160002054905060006009838154811061319a576131996141de565b5b9060005260206000200154905080600983815481106131bc576131bb6141de565b5b906000526020600020018190555081600a600083815260200190815260200160002081905550600a600085815260200190815260200160002060009055600980548061320b5761320a614f45565b5b6001900381819060005260206000200160009055905550505050565b60006132328361101b565b905081600760008573ffffffffffffffffffffffffffffffffffffffff1673ffffffffffffffffffffffffffffffffffffffff168152602001908152602001600020600083815260200190815260200160002081905550806008600084815260200190815260200160002081905550505050565b60405180606001604052806060815260200160608152602001606081525090565b6000604051905090565b600080fd5b600080fd5b60007fffffffff0000000000000000000000000000000000000000000000000000000082169050919050565b613310816132db565b811461331b57600080fd5b50565b60008135905061332d81613307565b92915050565b600060208284031215613349576133486132d1565b5b60006133578482850161331e565b91505092915050565b60008115159050919050565b61337581613360565b82525050565b6000602082019050613390600083018461336c565b92915050565b600081519050919050565b600082825260208201905092915050565b60005b838110156133d05780820151818401526020810190506133b5565b60008484015250505050565b6000601f19601f8301169050919050565b60006133f882613396565b61340281856133a1565b93506134128185602086016133b2565b61341b816133dc565b840191505092915050565b6000602082019050818103600083015261344081846133ed565b905092915050565b6000819050919050565b61345b81613448565b811461346657600080fd5b50565b60008135905061347881613452565b92915050565b600060208284031215613494576134936132d1565b5b60006134a284828501613469565b91505092915050565b600073ffffffffffffffffffffffffffffffffffffffff82169050919050565b60006134d6826134ab565b9050919050565b6134e6816134cb565b82525050565b600060208201905061350160008301846134dd565b92915050565b613510816134cb565b811461351b57600080fd5b50565b60008135905061352d81613507565b92915050565b6000806040838503121561354a576135496132d1565b5b60006135588582860161351e565b925050602061356985828601613469565b9150509250929050565b61357c81613448565b82525050565b60006020820190506135976000830184613573565b92915050565b6000806000606084860312156135b6576135b56132d1565b5b60006135c48682870161351e565b93505060206135d58682870161351e565b92505060406135e686828701613469565b9150509250925092565b600080fd5b600080fd5b7f4e487b7100000000000000000000000000000000000000000000000000000000600052604160045260246000fd5b613632826133dc565b810181811067ffffffffffffffff82111715613651576136506135fa565b5b80604052505050565b60006136646132c7565b90506136708282613629565b919050565b600067ffffffffffffffff8211156136905761368f6135fa565b5b613699826133dc565b9050602081019050919050565b82818337600083830152505050565b60006136c86136c384613675565b61365a565b9050828152602081018484840111156136e4576136e36135f5565b5b6136ef8482856136a6565b509392505050565b600082601f83011261370c5761370b6135f0565b5b813561371c8482602086016136b5565b91505092915050565b60008060006060848603121561373e5761373d6132d1565b5b600084013567ffffffffffffffff81111561375c5761375b6132d6565b5b613768868287016136f7565b935050602084013567ffffffffffffffff811115613789576137886132d6565b5b613795868287016136f7565b925050604084013567ffffffffffffffff8111156137b6576137b56132d6565b5b6137c2868287016136f7565b9150509250925092565b60006137d7826134ab565b9050919050565b6137e7816137cc565b81146137f257600080fd5b50565b600081359050613804816137de565b92915050565b60008060408385031215613821576138206132d1565b5b600061382f858286016137f5565b925050602061384085828601613469565b9150509250929050565b6000602082840312156138605761385f6132d1565b5b600061386e8482850161351e565b91505092915050565b600082825260208201905092915050565b600061389382613396565b61389d8185613877565b93506138ad8185602086016133b2565b6138b6816133dc565b840191505092915050565b600060608301600083015184820360008601526138de8282613888565b915050602083015184820360208601526138f88282613888565b915050604083015184820360408601526139128282613888565b9150508091505092915050565b6000602082019050818103600083015261393981846138c1565b905092915050565b61394a816137cc565b82525050565b60006020820190506139656000830184613941565b92915050565b61397481613360565b811461397f57600080fd5b50565b6000813590506139918161396b565b92915050565b600080604083850312156139ae576139ad6132d1565b5b60006139bc8582860161351e565b92505060206139cd85828601613982565b9150509250929050565b600067ffffffffffffffff8211156139f2576139f16135fa565b5b6139fb826133dc565b9050602081019050919050565b6000613a1b613a16846139d7565b61365a565b905082815260208101848484011115613a3757613a366135f5565b5b613a428482856136a6565b509392505050565b600082601f830112613a5f57613a5e6135f0565b5b8135613a6f848260208601613a08565b91505092915050565b60008060008060808587031215613a9257613a916132d1565b5b6000613aa08782880161351e565b9450506020613ab18782880161351e565b9350506040613ac287828801613469565b925050606085013567ffffffffffffffff811115613ae357613ae26132d6565b5b613aef87828801613a4a565b91505092959194509250565b60006060820190508181036000830152613b1581866133ed565b90508181036020830152613b2981856133ed565b90508181036040830152613b3d81846133ed565b9050949350505050565b60008060408385031215613b5e57613b5d6132d1565b5b6000613b6c8582860161351e565b9250506020613b7d8582860161351e565b9150509250929050565b7f4e487b7100000000000000000000000000000000000000000000000000000000600052602260045260246000fd5b60006002820490506001821680613bce57607f821691505b602082108103613be157613be0613b87565b5b50919050565b7f4552433732313a20617070726f76616c20746f2063757272656e74206f776e6560008201527f7200000000000000000000000000000000000000000000000000000000000000602082015250565b6000613c436021836133a1565b9150613c4e82613be7565b604082019050919050565b60006020820190508181036000830152613c7281613c36565b9050919050565b7f4552433732313a20617070726f76652063616c6c6572206973206e6f7420746f60008201527f6b656e206f776e6572206f7220617070726f76656420666f7220616c6c000000602082015250565b6000613cd5603d836133a1565b9150613ce082613c79565b604082019050919050565b60006020820190508181036000830152613d0481613cc8565b9050919050565b7f4e487b7100000000000000000000000000000000000000000000000000000000600052601160045260246000fd5b6000613d4582613448565b9150613d5083613448565b9250828201905080821115613d6857613d67613d0b565b5b92915050565b6000819050919050565b613d89613d8482613448565b613d6e565b82525050565b6000613d9b8284613d78565b60208201915081905092915050565b7f4552433732313a2063616c6c6572206973206e6f7420746f6b656e206f776e6560008201527f72206f7220617070726f76656400000000000000000000000000000000000000602082015250565b6000613e06602d836133a1565b9150613e1182613daa565b604082019050919050565b60006020820190508181036000830152613e3581613df9565b9050919050565b60008190508160005260206000209050919050565b60006020601f8301049050919050565b600082821b905092915050565b600060088302613e9e7fffffffffffffffffffffffffffffffffffffffffffffffffffffffffffffffff82613e61565b613ea88683613e61565b95508019841693508086168417925050509392505050565b6000819050919050565b6000613ee5613ee0613edb84613448565b613ec0565b613448565b9050919050565b6000819050919050565b613eff83613eca565b613f13613f0b82613eec565b848454613e6e565b825550505050565b600090565b613f28613f1b565b613f33818484613ef6565b505050565b5b81811015613f5757613f4c600082613f20565b600181019050613f39565b5050565b601f821115613f9c57613f6d81613e3c565b613f7684613e51565b81016020851015613f85578190505b613f99613f9185613e51565b830182613f38565b50505b505050565b600082821c905092915050565b6000613fbf60001984600802613fa1565b1980831691505092915050565b6000613fd88383613fae565b9150826002028217905092915050565b613ff182613396565b67ffffffffffffffff81111561400a576140096135fa565b5b6140148254613bb6565b61401f828285613f5b565b600060209050601f8311600181146140525760008415614040578287015190505b61404a8582613fcc565b8655506140b2565b601f19841661406086613e3c565b60005b8281101561408857848901518255600182019150602085019450602081019050614063565b868310156140a557848901516140a1601f891682613fae565b8355505b6001600288020188555050505b505050505050565b7f455243373231456e756d657261626c653a206f776e657220696e646578206f7560008201527f74206f6620626f756e6473000000000000000000000000000000000000000000602082015250565b6000614116602b836133a1565b9150614121826140ba565b604082019050919050565b6000602082019050818103600083015261414581614109565b9050919050565b7f455243373231456e756d657261626c653a20676c6f62616c20696e646578206f60008201527f7574206f6620626f756e64730000000000000000000000000000000000000000602082015250565b60006141a8602c836133a1565b91506141b38261414c565b604082019050919050565b600060208201905081810360008301526141d78161419b565b9050919050565b7f4e487b7100000000000000000000000000000000000000000000000000000000600052603260045260246000fd5b7f5265656e7472616e637920446574656374656400000000000000000000000000600082015250565b60006142436013836133a1565b915061424e8261420d565b602082019050919050565b6000602082019050818103600083015261427281614236565b9050919050565b7f456c206d6f6e746f2064656c207061676f206e6f20657320696775616c20616c60008201527f2070726563696f00000000000000000000000000000000000000000000000000602082015250565b60006142d56027836133a1565b91506142e082614279565b604082019050919050565b60006020820190508181036000830152614304816142c8565b9050919050565b600081905092915050565b50565b600061432660008361430b565b915061433182614316565b600082019050919050565b600061434782614319565b9150819050919050565b7f5472616e73616363696f6e206661696c65640000000000000000000000000000600082015250565b60006143876012836133a1565b915061439282614351565b602082019050919050565b600060208201905081810360008301526143b68161437a565b9050919050565b60006143c882613448565b91506143d383613448565b92508282026143e181613448565b915082820484148315176143f8576143f7613d0b565b5b5092915050565b7f4e487b7100000000000000000000000000000000000000000000000000000000600052601260045260246000fd5b600061443982613448565b915061444483613448565b925082614454576144536143ff565b5b828204905092915050565b600061446a82613448565b915061447583613448565b925082820390508181111561448d5761448c613d0b565b5b92915050565b7f4552433732313a20696e76616c696420746f6b656e2049440000000000000000600082015250565b60006144c96018836133a1565b91506144d482614493565b602082019050919050565b600060208201905081810360008301526144f8816144bc565b9050919050565b7f4552433732313a2061646472657373207a65726f206973206e6f74206120766160008201527f6c6964206f776e65720000000000000000000000000000000000000000000000602082015250565b600061455b6029836133a1565b9150614566826144ff565b604082019050919050565b6000602082019050818103600083015261458a8161454e565b9050919050565b7f5061796d656e74204661696c65642c20436865636b20796f75722062616c616e60008201527f6365000000000000000000000000000000000000000000000000000000000000602082015250565b60006145ed6022836133a1565b91506145f882614591565b604082019050919050565b6000602082019050818103600083015261461c816145e0565b9050919050565b7f5061796d656e74204661696c6564000000000000000000000000000000000000600082015250565b6000614659600e836133a1565b915061466482614623565b602082019050919050565b600060208201905081810360008301526146888161464c565b9050919050565b7f455243373231204d657461646174613a2055524920717565727920666f72206e60008201527f6f6e6578697374656e7420746f6b656e00000000000000000000000000000000602082015250565b60006146eb6030836133a1565b91506146f68261468f565b604082019050919050565b6000602082019050818103600083015261471a816146de565b9050919050565b600081905092915050565b7f7b2022746f6b656e496422203a20220000000000000000000000000000000000600082015250565b6000614762600f83614721565b915061476d8261472c565b600f82019050919050565b600061478382613396565b61478d8185614721565b935061479d8185602086016133b2565b80840191505092915050565b7f227d000000000000000000000000000000000000000000000000000000000000600082015250565b60006147df600283614721565b91506147ea826147a9565b600282019050919050565b600061480082614755565b915061480c8284614778565b9150614817826147d2565b915081905092915050565b7f596f7520646f6e2774206861766520746f6b656e7320696e207468697320706c60008201527f6174666f726d2c2074727920627579696e67206120746f6b656e206f7220776960208201527f746820616e6f746865722077616c6c6574000000000000000000000000000000604082015250565b60006148a46051836133a1565b91506148af82614822565b606082019050919050565b600060208201905081810360008301526148d381614897565b9050919050565b6000815490506148e981613bb6565b9050919050565b8181036148fe5750506149d6565b614907826148da565b67ffffffffffffffff8111156149205761491f6135fa565b5b61492a8254613bb6565b614935828285613f5b565b6000601f8311600181146149645760008415614952578287015490505b61495c8582613fcc565b8655506149cf565b601f19841661497287613e3c565b965061497d86613e3c565b60005b828110156149a557848901548255600182019150600185019450602081019050614980565b868310156149c257848901546149be601f891682613fae565b8355505b6001600288020188555050505b5050505050505b565b7f4f776e61626c653a206e6577206f776e657220697320746865207a65726f206160008201527f6464726573730000000000000000000000000000000000000000000000000000602082015250565b6000614a346026836133a1565b9150614a3f826149d8565b604082019050919050565b60006020820190508181036000830152614a6381614a27565b9050919050565b7f4552433732313a207472616e736665722066726f6d20696e636f72726563742060008201527f6f776e6572000000000000000000000000000000000000000000000000000000602082015250565b6000614ac66025836133a1565b9150614ad182614a6a565b604082019050919050565b60006020820190508181036000830152614af581614ab9565b9050919050565b7f4552433732313a207472616e7366657220746f20746865207a65726f2061646460008201527f7265737300000000000000000000000000000000000000000000000000000000602082015250565b6000614b586024836133a1565b9150614b6382614afc565b604082019050919050565b60006020820190508181036000830152614b8781614b4b565b9050919050565b7f4f776e61626c653a2063616c6c6572206973206e6f7420746865206f776e6572600082015250565b6000614bc46020836133a1565b9150614bcf82614b8e565b602082019050919050565b60006020820190508181036000830152614bf381614bb7565b9050919050565b7f4552433732313a20617070726f766520746f2063616c6c657200000000000000600082015250565b6000614c306019836133a1565b9150614c3b82614bfa565b602082019050919050565b60006020820190508181036000830152614c5f81614c23565b9050919050565b7f4552433732313a207472616e7366657220746f206e6f6e20455243373231526560008201527f63656976657220696d706c656d656e7465720000000000000000000000000000602082015250565b6000614cc26032836133a1565b9150614ccd82614c66565b604082019050919050565b60006020820190508181036000830152614cf181614cb5565b9050919050565b600081519050919050565b600082825260208201905092915050565b6000614d1f82614cf8565b614d298185614d03565b9350614d398185602086016133b2565b614d42816133dc565b840191505092915050565b6000608082019050614d6260008301876134dd565b614d6f60208301866134dd565b614d7c6040830185613573565b8181036060830152614d8e8184614d14565b905095945050505050565b600081519050614da881613307565b92915050565b600060208284031215614dc457614dc36132d1565b5b6000614dd284828501614d99565b91505092915050565b7f455243373231456e756d657261626c653a20636f6e736563757469766520747260008201527f616e7366657273206e6f7420737570706f727465640000000000000000000000602082015250565b6000614e376035836133a1565b9150614e4282614ddb565b604082019050919050565b60006020820190508181036000830152614e6681614e2a565b9050919050565b7f4552433732313a206d696e7420746f20746865207a65726f2061646472657373600082015250565b6000614ea36020836133a1565b9150614eae82614e6d565b602082019050919050565b60006020820190508181036000830152614ed281614e96565b9050919050565b7f4552433732313a20746f6b656e20616c7265616479206d696e74656400000000600082015250565b6000614f0f601c836133a1565b9150614f1a82614ed9565b602082019050919050565b60006020820190508181036000830152614f3e81614f02565b9050919050565b7f4e487b7100000000000000000000000000000000000000000000000000000000600052603160045260246000fdfe4142434445464748494a4b4c4d4e4f505152535455565758595a6162636465666768696a6b6c6d6e6f707172737475767778797a303132333435363738392b2fa2646970667358221220f31fb2cd52e5e9b3139b52d39813fddff3bddce4106ddb367bf6a9ccb7bdc5bb64736f6c63430008110033",
  "linkReferences": {},
  "deployedLinkReferences": {}
}