{
  "_format": "hh-sol-artifact-1",
  "contractName": "TicketSystem",
  "sourceName": "contracts/TicketSystem.sol",
  "abi": [
    {
      "inputs": [
        {
          "internalType": "uint256",
          "name": "_priceToPay",
          "type": "uint256"
        }
      ],
      "stateMutability": "payable",
      "type": "constructor"
    },
    {
      "anonymous": false,
      "inputs": [
        {
          "indexed": true,
          "internalType": "address",
          "name": "owner",
          "type": "address"
        },
        {
          "indexed": true,
          "internalType": "address",
          "name": "approved",
          "type": "address"
        },
        {
          "indexed": true,
          "internalType": "uint256",
          "name": "tokenId",
          "type": "uint256"
        }
      ],
      "name": "Approval",
      "type": "event"
    },
    {
      "anonymous": false,
      "inputs": [
        {
          "indexed": true,
          "internalType": "address",
          "name": "owner",
          "type": "address"
        },
        {
          "indexed": true,
          "internalType": "address",
          "name": "operator",
          "type": "address"
        },
        {
          "indexed": false,
          "internalType": "bool",
          "name": "approved",
          "type": "bool"
        }
      ],
      "name": "ApprovalForAll",
      "type": "event"
    },
    {
      "anonymous": false,
      "inputs": [
        {
          "indexed": true,
          "internalType": "address",
          "name": "previousOwner",
          "type": "address"
        },
        {
          "indexed": true,
          "internalType": "address",
          "name": "newOwner",
          "type": "address"
        }
      ],
      "name": "OwnershipTransferred",
      "type": "event"
    },
    {
      "anonymous": false,
      "inputs": [
        {
          "indexed": true,
          "internalType": "address",
          "name": "from",
          "type": "address"
        },
        {
          "indexed": true,
          "internalType": "address",
          "name": "to",
          "type": "address"
        },
        {
          "indexed": true,
          "internalType": "uint256",
          "name": "tokenId",
          "type": "uint256"
        }
      ],
      "name": "Transfer",
      "type": "event"
    },
    {
      "inputs": [
        {
          "internalType": "address",
          "name": "to",
          "type": "address"
        },
        {
          "internalType": "uint256",
          "name": "tokenId",
          "type": "uint256"
        }
      ],
      "name": "approve",
      "outputs": [],
      "stateMutability": "nonpayable",
      "type": "function"
    },
    {
      "inputs": [
        {
          "internalType": "address",
          "name": "owner",
          "type": "address"
        }
      ],
      "name": "balanceOf",
      "outputs": [
        {
          "internalType": "uint256",
          "name": "",
          "type": "uint256"
        }
      ],
      "stateMutability": "view",
      "type": "function"
    },
    {
      "inputs": [],
      "name": "buyToken",
      "outputs": [],
      "stateMutability": "nonpayable",
      "type": "function"
    },
    {
      "inputs": [
        {
          "internalType": "uint256",
          "name": "",
          "type": "uint256"
        }
      ],
      "name": "clientData",
      "outputs": [
        {
          "internalType": "string",
          "name": "fullName",
          "type": "string"
        },
        {
          "internalType": "string",
          "name": "fisicalAddress",
          "type": "string"
        },
        {
          "internalType": "string",
          "name": "telefone",
          "type": "string"
        }
      ],
      "stateMutability": "view",
      "type": "function"
    },
    {
      "inputs": [],
      "name": "contractAddress",
      "outputs": [
        {
          "internalType": "address payable",
          "name": "",
          "type": "address"
        }
      ],
      "stateMutability": "view",
      "type": "function"
    },
    {
      "inputs": [
        {
          "internalType": "string",
          "name": "_fullName",
          "type": "string"
        },
        {
          "internalType": "string",
          "name": "_fisicalAddress",
          "type": "string"
        },
        {
          "internalType": "string",
          "name": "_telefone",
          "type": "string"
        }
      ],
      "name": "createClient",
      "outputs": [],
      "stateMutability": "nonpayable",
      "type": "function"
    },
    {
      "inputs": [
        {
          "internalType": "address",
          "name": "_account",
          "type": "address"
        },
        {
          "internalType": "uint256",
          "name": "_tokenId",
          "type": "uint256"
        }
      ],
      "name": "createTokenDNA",
      "outputs": [
        {
          "internalType": "uint256",
          "name": "",
          "type": "uint256"
        }
      ],
      "stateMutability": "pure",
      "type": "function"
    },
    {
      "inputs": [
        {
          "internalType": "uint256",
          "name": "tokenId",
          "type": "uint256"
        }
      ],
      "name": "getApproved",
      "outputs": [
        {
          "internalType": "address",
          "name": "",
          "type": "address"
        }
      ],
      "stateMutability": "view",
      "type": "function"
    },
    {
      "inputs": [],
      "name": "getBalance",
      "outputs": [
        {
          "internalType": "uint256",
          "name": "",
          "type": "uint256"
        }
      ],
      "stateMutability": "view",
      "type": "function"
    },
    {
      "inputs": [
        {
          "internalType": "address",
          "name": "owner",
          "type": "address"
        },
        {
          "internalType": "address",
          "name": "operator",
          "type": "address"
        }
      ],
      "name": "isApprovedForAll",
      "outputs": [
        {
          "internalType": "bool",
          "name": "",
          "type": "bool"
        }
      ],
      "stateMutability": "view",
      "type": "function"
    },
    {
      "inputs": [],
      "name": "name",
      "outputs": [
        {
          "internalType": "string",
          "name": "",
          "type": "string"
        }
      ],
      "stateMutability": "view",
      "type": "function"
    },
    {
      "inputs": [],
      "name": "owner",
      "outputs": [
        {
          "internalType": "address",
          "name": "",
          "type": "address"
        }
      ],
      "stateMutability": "view",
      "type": "function"
    },
    {
      "inputs": [],
      "name": "ownerAddress",
      "outputs": [
        {
          "internalType": "address payable",
          "name": "",
          "type": "address"
        }
      ],
      "stateMutability": "view",
      "type": "function"
    },
    {
      "inputs": [
        {
          "internalType": "uint256",
          "name": "tokenId",
          "type": "uint256"
        }
      ],
      "name": "ownerOf",
      "outputs": [
        {
          "internalType": "address",
          "name": "",
          "type": "address"
        }
      ],
      "stateMutability": "view",
      "type": "function"
    },
    {
      "inputs": [],
      "name": "priceToPay",
      "outputs": [
        {
          "internalType": "uint256",
          "name": "",
          "type": "uint256"
        }
      ],
      "stateMutability": "view",
      "type": "function"
    },
    {
      "inputs": [
        {
          "internalType": "uint256",
          "name": "tokenId",
          "type": "uint256"
        }
      ],
      "name": "redeem",
      "outputs": [],
      "stateMutability": "nonpayable",
      "type": "function"
    },
    {
      "inputs": [],
      "name": "renounceOwnership",
      "outputs": [],
      "stateMutability": "nonpayable",
      "type": "function"
    },
    {
      "inputs": [],
      "name": "safeMint",
      "outputs": [],
      "stateMutability": "nonpayable",
      "type": "function"
    },
    {
      "inputs": [
        {
          "internalType": "address",
          "name": "from",
          "type": "address"
        },
        {
          "internalType": "address",
          "name": "to",
          "type": "address"
        },
        {
          "internalType": "uint256",
          "name": "tokenId",
          "type": "uint256"
        }
      ],
      "name": "safeTransferFrom",
      "outputs": [],
      "stateMutability": "nonpayable",
      "type": "function"
    },
    {
      "inputs": [
        {
          "internalType": "address",
          "name": "from",
          "type": "address"
        },
        {
          "internalType": "address",
          "name": "to",
          "type": "address"
        },
        {
          "internalType": "uint256",
          "name": "tokenId",
          "type": "uint256"
        },
        {
          "internalType": "bytes",
          "name": "data",
          "type": "bytes"
        }
      ],
      "name": "safeTransferFrom",
      "outputs": [],
      "stateMutability": "nonpayable",
      "type": "function"
    },
    {
      "inputs": [],
      "name": "sendClient",
      "outputs": [
        {
          "components": [
            {
              "internalType": "string",
              "name": "fullName",
              "type": "string"
            },
            {
              "internalType": "string",
              "name": "fisicalAddress",
              "type": "string"
            },
            {
              "internalType": "string",
              "name": "telefone",
              "type": "string"
            }
          ],
          "internalType": "struct TicketSystem.client",
          "name": "",
          "type": "tuple"
        }
      ],
      "stateMutability": "view",
      "type": "function"
    },
    {
      "inputs": [
        {
          "internalType": "address payable",
          "name": "_to",
          "type": "address"
        },
        {
          "internalType": "uint256",
          "name": "_priceToPay",
          "type": "uint256"
        }
      ],
      "name": "sendEther",
      "outputs": [
        {
          "internalType": "bool",
          "name": "",
          "type": "bool"
        }
      ],
      "stateMutability": "payable",
      "type": "function"
    },
    {
      "inputs": [
        {
          "internalType": "address",
          "name": "operator",
          "type": "address"
        },
        {
          "internalType": "bool",
          "name": "approved",
          "type": "bool"
        }
      ],
      "name": "setApprovalForAll",
      "outputs": [],
      "stateMutability": "nonpayable",
      "type": "function"
    },
    {
      "inputs": [
        {
          "internalType": "uint256",
          "name": "_priceToPay",
          "type": "uint256"
        }
      ],
      "name": "setPriceToPay",
      "outputs": [],
      "stateMutability": "nonpayable",
      "type": "function"
    },
    {
      "inputs": [
        {
          "internalType": "bytes4",
          "name": "interfaceId",
          "type": "bytes4"
        }
      ],
      "name": "supportsInterface",
      "outputs": [
        {
          "internalType": "bool",
          "name": "",
          "type": "bool"
        }
      ],
      "stateMutability": "view",
      "type": "function"
    },
    {
      "inputs": [],
      "name": "symbol",
      "outputs": [
        {
          "internalType": "string",
          "name": "",
          "type": "string"
        }
      ],
      "stateMutability": "view",
      "type": "function"
    },
    {
      "inputs": [
        {
          "internalType": "uint256",
          "name": "index",
          "type": "uint256"
        }
      ],
      "name": "tokenByIndex",
      "outputs": [
        {
          "internalType": "uint256",
          "name": "",
          "type": "uint256"
        }
      ],
      "stateMutability": "view",
      "type": "function"
    },
    {
      "inputs": [
        {
          "internalType": "address",
          "name": "owner",
          "type": "address"
        },
        {
          "internalType": "uint256",
          "name": "index",
          "type": "uint256"
        }
      ],
      "name": "tokenOfOwnerByIndex",
      "outputs": [
        {
          "internalType": "uint256",
          "name": "",
          "type": "uint256"
        }
      ],
      "stateMutability": "view",
      "type": "function"
    },
    {
      "inputs": [
        {
          "internalType": "uint256",
          "name": "",
          "type": "uint256"
        }
      ],
      "name": "tokenSerial",
      "outputs": [
        {
          "internalType": "uint256",
          "name": "",
          "type": "uint256"
        }
      ],
      "stateMutability": "view",
      "type": "function"
    },
    {
      "inputs": [
        {
          "internalType": "uint256",
          "name": "tokenId",
          "type": "uint256"
        }
      ],
      "name": "tokenURI",
      "outputs": [
        {
          "internalType": "string",
          "name": "",
          "type": "string"
        }
      ],
      "stateMutability": "view",
      "type": "function"
    },
    {
      "inputs": [],
      "name": "totalSupply",
      "outputs": [
        {
          "internalType": "uint256",
          "name": "",
          "type": "uint256"
        }
      ],
      "stateMutability": "view",
      "type": "function"
    },
    {
      "inputs": [
        {
          "internalType": "address",
          "name": "from",
          "type": "address"
        },
        {
          "internalType": "address",
          "name": "to",
          "type": "address"
        },
        {
          "internalType": "uint256",
          "name": "tokenId",
          "type": "uint256"
        }
      ],
      "name": "transferFrom",
      "outputs": [],
      "stateMutability": "nonpayable",
      "type": "function"
    },
    {
      "inputs": [
        {
          "internalType": "address",
          "name": "newOwner",
          "type": "address"
        }
      ],
      "name": "transferOwnership",
      "outputs": [],
      "stateMutability": "nonpayable",
      "type": "function"
    },
    {
      "inputs": [],
      "name": "withdrawBalance",
      "outputs": [],
      "stateMutability": "nonpayable",
      "type": "function"
    },
    {
      "inputs": [
        {
          "internalType": "address payable",
          "name": "_to",
          "type": "address"
        },
        {
          "internalType": "uint256",
          "name": "_amount",
          "type": "uint256"
        }
      ],
      "name": "withdrawEther",
      "outputs": [
        {
          "internalType": "bool",
          "name": "",
          "type": "bool"
        }
      ],
      "stateMutability": "payable",
      "type": "function"
    },
    {
      "stateMutability": "payable",
      "type": "receive"
    }
  ],
  "bytecode": "0x60806040526000600b60006101000a81548160ff0219169083151502179055506040516200550138038062005501833981810160405281019062000044919062000294565b6040518060400160405280600981526020017f546f6b656e4e616d6500000000000000000000000000000000000000000000008152506040518060400160405280600381526020017f544e4d00000000000000000000000000000000000000000000000000000000008152508160009081620000c1919062000536565b508060019081620000d3919062000536565b505050620000f6620000ea6200018660201b60201c565b6200018e60201b60201c565b8060118190555033601260006101000a81548173ffffffffffffffffffffffffffffffffffffffff021916908373ffffffffffffffffffffffffffffffffffffffff16021790555030601360006101000a81548173ffffffffffffffffffffffffffffffffffffffff021916908373ffffffffffffffffffffffffffffffffffffffff160217905550506200061d565b600033905090565b6000600660009054906101000a900473ffffffffffffffffffffffffffffffffffffffff16905081600660006101000a81548173ffffffffffffffffffffffffffffffffffffffff021916908373ffffffffffffffffffffffffffffffffffffffff1602179055508173ffffffffffffffffffffffffffffffffffffffff168173ffffffffffffffffffffffffffffffffffffffff167f8be0079c531659141344cd1fd0a4f28419497f9722a3daafe3b4186f6b6457e060405160405180910390a35050565b600080fd5b6000819050919050565b6200026e8162000259565b81146200027a57600080fd5b50565b6000815190506200028e8162000263565b92915050565b600060208284031215620002ad57620002ac62000254565b5b6000620002bd848285016200027d565b91505092915050565b600081519050919050565b7f4e487b7100000000000000000000000000000000000000000000000000000000600052604160045260246000fd5b7f4e487b7100000000000000000000000000000000000000000000000000000000600052602260045260246000fd5b600060028204905060018216806200034857607f821691505b6020821081036200035e576200035d62000300565b5b50919050565b60008190508160005260206000209050919050565b60006020601f8301049050919050565b600082821b905092915050565b600060088302620003c87fffffffffffffffffffffffffffffffffffffffffffffffffffffffffffffffff8262000389565b620003d4868362000389565b95508019841693508086168417925050509392505050565b6000819050919050565b600062000417620004116200040b8462000259565b620003ec565b62000259565b9050919050565b6000819050919050565b6200043383620003f6565b6200044b62000442826200041e565b84845462000396565b825550505050565b600090565b6200046262000453565b6200046f81848462000428565b505050565b5b8181101562000497576200048b60008262000458565b60018101905062000475565b5050565b601f821115620004e657620004b08162000364565b620004bb8462000379565b81016020851015620004cb578190505b620004e3620004da8562000379565b83018262000474565b50505b505050565b600082821c905092915050565b60006200050b60001984600802620004eb565b1980831691505092915050565b6000620005268383620004f8565b9150826002028217905092915050565b6200054182620002c6565b67ffffffffffffffff8111156200055d576200055c620002d1565b5b6200056982546200032f565b620005768282856200049b565b600060209050601f831160018114620005ae576000841562000599578287015190505b620005a5858262000518565b86555062000615565b601f198416620005be8662000364565b60005b82811015620005e857848901518255600182019150602085019450602081019050620005c1565b8683101562000608578489015162000604601f891682620004f8565b8355505b6001600288020188555050505b505050505050565b614ed4806200062d6000396000f3fe6080604052600436106102085760003560e01c80636871ee4011610118578063a4821719116100a0578063c87b56dd1161006f578063c87b56dd1461076e578063db006a75146107ab578063e985e9c5146107d4578063f2fde38b14610811578063f6b4dfb41461083a5761020f565b8063a4821719146106bf578063b88d4fde146106d6578063bd8edf15146106ff578063c1756a2c1461073e5761020f565b80638da5cb5b116100e75780638da5cb5b146105d85780638f84aa091461060357806395d89b411461062e5780639b3ee2c314610659578063a22cb465146106965761020f565b80636871ee401461054257806370a0823114610559578063715018a614610596578063760839a0146105ad5761020f565b806323b872dd1161019b57806342842e0e1161016a57806342842e0e146104585780634f6ccce714610481578063522f6815146104be5780635fd8c710146104ee5780636352211e146105055761020f565b806323b872dd146103a05780632eed7269146103c95780632f745c59146103f2578063351bec6b1461042f5761020f565b8063098215e5116101d7578063098215e5146102e257806312065fe01461030d578063177e40251461033857806318160ddd146103755761020f565b806301ffc9a71461021457806306fdde0314610251578063081812fc1461027c578063095ea7b3146102b95761020f565b3661020f57005b600080fd5b34801561022057600080fd5b5061023b600480360381019061023691906132af565b610865565b60405161024891906132f7565b60405180910390f35b34801561025d57600080fd5b50610266610877565b60405161027391906133a2565b60405180910390f35b34801561028857600080fd5b506102a3600480360381019061029e91906133fa565b610909565b6040516102b09190613468565b60405180910390f35b3480156102c557600080fd5b506102e060048036038101906102db91906134af565b61094f565b005b3480156102ee57600080fd5b506102f7610a66565b60405161030491906134fe565b60405180910390f35b34801561031957600080fd5b50610322610a6c565b60405161032f91906134fe565b60405180910390f35b34801561034457600080fd5b5061035f600480360381019061035a91906134af565b610a74565b60405161036c91906134fe565b60405180910390f35b34801561038157600080fd5b5061038a610ada565b60405161039791906134fe565b60405180910390f35b3480156103ac57600080fd5b506103c760048036038101906103c29190613519565b610ae7565b005b3480156103d557600080fd5b506103f060048036038101906103eb91906136a1565b610b47565b005b3480156103fe57600080fd5b50610419600480360381019061041491906134af565b610be0565b60405161042691906134fe565b60405180910390f35b34801561043b57600080fd5b50610456600480360381019061045191906133fa565b610c85565b005b34801561046457600080fd5b5061047f600480360381019061047a9190613519565b610c97565b005b34801561048d57600080fd5b506104a860048036038101906104a391906133fa565b610cb7565b6040516104b591906134fe565b60405180910390f35b6104d860048036038101906104d39190613786565b610d28565b6040516104e591906132f7565b60405180910390f35b3480156104fa57600080fd5b50610503610e66565b005b34801561051157600080fd5b5061052c600480360381019061052791906133fa565b610f05565b6040516105399190613468565b60405180910390f35b34801561054e57600080fd5b50610557610f8b565b005b34801561056557600080fd5b50610580600480360381019061057b91906137c6565b610fd9565b60405161058d91906134fe565b60405180910390f35b3480156105a257600080fd5b506105ab611090565b005b3480156105b957600080fd5b506105c26110a4565b6040516105cf919061389b565b60405180910390f35b3480156105e457600080fd5b506105ed611274565b6040516105fa9190613468565b60405180910390f35b34801561060f57600080fd5b5061061861129e565b60405161062591906138cc565b60405180910390f35b34801561063a57600080fd5b506106436112c4565b60405161065091906133a2565b60405180910390f35b34801561066557600080fd5b50610680600480360381019061067b91906133fa565b611356565b60405161068d91906134fe565b60405180910390f35b3480156106a257600080fd5b506106bd60048036038101906106b89190613913565b61136e565b005b3480156106cb57600080fd5b506106d4611384565b005b3480156106e257600080fd5b506106fd60048036038101906106f891906139f4565b61143d565b005b34801561070b57600080fd5b50610726600480360381019061072191906133fa565b61149f565b60405161073593929190613a77565b60405180910390f35b61075860048036038101906107539190613786565b611661565b60405161076591906132f7565b60405180910390f35b34801561077a57600080fd5b50610795600480360381019061079091906133fa565b61179f565b6040516107a291906133a2565b60405180910390f35b3480156107b757600080fd5b506107d260048036038101906107cd91906133fa565b61183f565b005b3480156107e057600080fd5b506107fb60048036038101906107f69190613ac3565b611943565b60405161080891906132f7565b60405180910390f35b34801561081d57600080fd5b50610838600480360381019061083391906137c6565b6119d7565b005b34801561084657600080fd5b5061084f611a5a565b60405161085c91906138cc565b60405180910390f35b600061087082611a80565b9050919050565b60606000805461088690613b32565b80601f01602080910402602001604051908101604052809291908181526020018280546108b290613b32565b80156108ff5780601f106108d4576101008083540402835291602001916108ff565b820191906000526020600020905b8154815290600101906020018083116108e257829003601f168201915b5050505050905090565b600061091482611afa565b6004600083815260200190815260200160002060009054906101000a900473ffffffffffffffffffffffffffffffffffffffff169050919050565b600061095a82610f05565b90508073ffffffffffffffffffffffffffffffffffffffff168373ffffffffffffffffffffffffffffffffffffffff16036109ca576040517f08c379a00000000000000000000000000000000000000000000000000000000081526004016109c190613bd5565b60405180910390fd5b8073ffffffffffffffffffffffffffffffffffffffff166109e9611b45565b73ffffffffffffffffffffffffffffffffffffffff161480610a185750610a1781610a12611b45565b611943565b5b610a57576040517f08c379a0000000000000000000000000000000000000000000000000000000008152600401610a4e90613c67565b60405180910390fd5b610a618383611b4d565b505050565b60115481565b600047905090565b6000808373ffffffffffffffffffffffffffffffffffffffff1683610a999190613cb6565b9050600081604051602001610aae9190613d0b565b60405160208183030381529060405290506000818051906020012090508060001c935050505092915050565b6000600980549050905090565b610af8610af2611b45565b82611c06565b610b37576040517f08c379a0000000000000000000000000000000000000000000000000000000008152600401610b2e90613d98565b60405180910390fd5b610b42838383611c9b565b505050565b610b4f611f94565b6000610b5b600d612012565b9050604051806060016040528085815260200184815260200183815250601060008381526020019081526020016000206000820151816000019081610ba09190613f64565b506020820151816001019081610bb69190613f64565b506040820151816002019081610bcc9190613f64565b50905050610bda600d612020565b50505050565b6000610beb83610fd9565b8210610c2c576040517f08c379a0000000000000000000000000000000000000000000000000000000008152600401610c23906140a8565b60405180910390fd5b600760008473ffffffffffffffffffffffffffffffffffffffff1673ffffffffffffffffffffffffffffffffffffffff168152602001908152602001600020600083815260200190815260200160002054905092915050565b610c8d611f94565b8060118190555050565b610cb28383836040518060200160405280600081525061143d565b505050565b6000610cc1610ada565b8210610d02576040517f08c379a0000000000000000000000000000000000000000000000000000000008152600401610cf99061413a565b60405180910390fd5b60098281548110610d1657610d1561415a565b5b90600052602060002001549050919050565b6000600b60009054906101000a900460ff1615610d7a576040517f08c379a0000000000000000000000000000000000000000000000000000000008152600401610d71906141d5565b60405180910390fd5b6001600b60006101000a81548160ff02191690831515021790555060008373ffffffffffffffffffffffffffffffffffffffff1683604051610dbb90614226565b60006040518083038185875af1925050503d8060008114610df8576040519150601f19603f3d011682016040523d82523d6000602084013e610dfd565b606091505b5050905080610e41576040517f08c379a0000000000000000000000000000000000000000000000000000000008152600401610e3890614287565b60405180910390fd5b6000600b60006101000a81548160ff0219169083151502179055508091505092915050565b610e6e611f94565b6000601360009054906101000a900473ffffffffffffffffffffffffffffffffffffffff1673ffffffffffffffffffffffffffffffffffffffff1631905060006064600a83610ebd91906142a7565b610ec79190614318565b82610ed29190614349565b9050610f00601260009054906101000a900473ffffffffffffffffffffffffffffffffffffffff1682610d28565b505050565b600080610f1183612036565b9050600073ffffffffffffffffffffffffffffffffffffffff168173ffffffffffffffffffffffffffffffffffffffff1603610f82576040517f08c379a0000000000000000000000000000000000000000000000000000000008152600401610f79906143c9565b60405180910390fd5b80915050919050565b610f93611f94565b6000610f9f600c612012565b9050610fab3382610a74565b600f600083815260200190815260200160002081905550610fcc3382612073565b610fd6600c612020565b50565b60008073ffffffffffffffffffffffffffffffffffffffff168273ffffffffffffffffffffffffffffffffffffffff1603611049576040517f08c379a00000000000000000000000000000000000000000000000000000000081526004016110409061445b565b60405180910390fd5b600360008373ffffffffffffffffffffffffffffffffffffffff1673ffffffffffffffffffffffffffffffffffffffff168152602001908152602001600020549050919050565b611098611f94565b6110a26000612091565b565b6110ac613222565b60146040518060600160405290816000820180546110c990613b32565b80601f01602080910402602001604051908101604052809291908181526020018280546110f590613b32565b80156111425780601f1061111757610100808354040283529160200191611142565b820191906000526020600020905b81548152906001019060200180831161112557829003601f168201915b5050505050815260200160018201805461115b90613b32565b80601f016020809104026020016040519081016040528092919081815260200182805461118790613b32565b80156111d45780601f106111a9576101008083540402835291602001916111d4565b820191906000526020600020905b8154815290600101906020018083116111b757829003601f168201915b505050505081526020016002820180546111ed90613b32565b80601f016020809104026020016040519081016040528092919081815260200182805461121990613b32565b80156112665780601f1061123b57610100808354040283529160200191611266565b820191906000526020600020905b81548152906001019060200180831161124957829003601f168201915b505050505081525050905090565b6000600660009054906101000a900473ffffffffffffffffffffffffffffffffffffffff16905090565b601260009054906101000a900473ffffffffffffffffffffffffffffffffffffffff1681565b6060600180546112d390613b32565b80601f01602080910402602001604051908101604052809291908181526020018280546112ff90613b32565b801561134c5780601f106113215761010080835404028352916020019161134c565b820191906000526020600020905b81548152906001019060200180831161132f57829003601f168201915b5050505050905090565b600f6020528060005260406000206000915090505481565b611380611379611b45565b8383612157565b5050565b60003390506113b7601360009054906101000a900473ffffffffffffffffffffffffffffffffffffffff16601154611661565b6113f6576040517f08c379a00000000000000000000000000000000000000000000000000000000081526004016113ed906144ed565b60405180910390fd5b6000611402600c612012565b905061140e8282610a74565b600f60008381526020019081526020016000208190555061142f8282612073565b611439600c612020565b5050565b61144e611448611b45565b83611c06565b61148d576040517f08c379a000000000000000000000000000000000000000000000000000000000815260040161148490613d98565b60405180910390fd5b611499848484846122c3565b50505050565b60106020528060005260406000206000915090508060000180546114c290613b32565b80601f01602080910402602001604051908101604052809291908181526020018280546114ee90613b32565b801561153b5780601f106115105761010080835404028352916020019161153b565b820191906000526020600020905b81548152906001019060200180831161151e57829003601f168201915b50505050509080600101805461155090613b32565b80601f016020809104026020016040519081016040528092919081815260200182805461157c90613b32565b80156115c95780601f1061159e576101008083540402835291602001916115c9565b820191906000526020600020905b8154815290600101906020018083116115ac57829003601f168201915b5050505050908060020180546115de90613b32565b80601f016020809104026020016040519081016040528092919081815260200182805461160a90613b32565b80156116575780601f1061162c57610100808354040283529160200191611657565b820191906000526020600020905b81548152906001019060200180831161163a57829003601f168201915b5050505050905083565b6000600b60009054906101000a900460ff16156116b3576040517f08c379a00000000000000000000000000000000000000000000000000000000081526004016116aa906141d5565b60405180910390fd5b6001600b60006101000a81548160ff02191690831515021790555060008373ffffffffffffffffffffffffffffffffffffffff16836040516116f490614226565b60006040518083038185875af1925050503d8060008114611731576040519150601f19603f3d011682016040523d82523d6000602084013e611736565b606091505b505090508061177a576040517f08c379a000000000000000000000000000000000000000000000000000000000815260040161177190614559565b60405180910390fd5b6000600b60006101000a81548160ff0219169083151502179055508091505092915050565b60606117aa8261231f565b6117e9576040517f08c379a00000000000000000000000000000000000000000000000000000000081526004016117e0906145eb565b60405180910390fd5b6000600f6000848152602001908152602001600020549050600061183361180f83612360565b60405160200161181f91906146df565b60405160208183030381529060405261242e565b90508092505050919050565b6118488161231f565b801561188857503373ffffffffffffffffffffffffffffffffffffffff166118706000610f05565b73ffffffffffffffffffffffffffffffffffffffff16145b6118c7576040517f08c379a00000000000000000000000000000000000000000000000000000000081526004016118be906147a4565b60405180910390fd5b60006118d3600e612012565b90506118df600e612020565b6118e882612591565b6010600082815260200190815260200160002060146000820181600001908161191191906147da565b506001820181600101908161192691906147da565b506002820181600201908161193b91906147da565b509050505050565b6000600560008473ffffffffffffffffffffffffffffffffffffffff1673ffffffffffffffffffffffffffffffffffffffff16815260200190815260200160002060008373ffffffffffffffffffffffffffffffffffffffff1673ffffffffffffffffffffffffffffffffffffffff16815260200190815260200160002060009054906101000a900460ff16905092915050565b6119df611f94565b600073ffffffffffffffffffffffffffffffffffffffff168173ffffffffffffffffffffffffffffffffffffffff1603611a4e576040517f08c379a0000000000000000000000000000000000000000000000000000000008152600401611a4590614934565b60405180910390fd5b611a5781612091565b50565b601360009054906101000a900473ffffffffffffffffffffffffffffffffffffffff1681565b60007f780e9d63000000000000000000000000000000000000000000000000000000007bffffffffffffffffffffffffffffffffffffffffffffffffffffffff1916827bffffffffffffffffffffffffffffffffffffffffffffffffffffffff19161480611af35750611af2826126df565b5b9050919050565b611b038161231f565b611b42576040517f08c379a0000000000000000000000000000000000000000000000000000000008152600401611b39906143c9565b60405180910390fd5b50565b600033905090565b816004600083815260200190815260200160002060006101000a81548173ffffffffffffffffffffffffffffffffffffffff021916908373ffffffffffffffffffffffffffffffffffffffff160217905550808273ffffffffffffffffffffffffffffffffffffffff16611bc083610f05565b73ffffffffffffffffffffffffffffffffffffffff167f8c5be1e5ebec7d5bd14f71427d1e84f3dd0314c0f7b2291e5b200ac8c7c3b92560405160405180910390a45050565b600080611c1283610f05565b90508073ffffffffffffffffffffffffffffffffffffffff168473ffffffffffffffffffffffffffffffffffffffff161480611c545750611c538185611943565b5b80611c9257508373ffffffffffffffffffffffffffffffffffffffff16611c7a84610909565b73ffffffffffffffffffffffffffffffffffffffff16145b91505092915050565b8273ffffffffffffffffffffffffffffffffffffffff16611cbb82610f05565b73ffffffffffffffffffffffffffffffffffffffff1614611d11576040517f08c379a0000000000000000000000000000000000000000000000000000000008152600401611d08906149c6565b60405180910390fd5b600073ffffffffffffffffffffffffffffffffffffffff168273ffffffffffffffffffffffffffffffffffffffff1603611d80576040517f08c379a0000000000000000000000000000000000000000000000000000000008152600401611d7790614a58565b60405180910390fd5b611d8d83838360016127c1565b8273ffffffffffffffffffffffffffffffffffffffff16611dad82610f05565b73ffffffffffffffffffffffffffffffffffffffff1614611e03576040517f08c379a0000000000000000000000000000000000000000000000000000000008152600401611dfa906149c6565b60405180910390fd5b6004600082815260200190815260200160002060006101000a81549073ffffffffffffffffffffffffffffffffffffffff02191690556001600360008573ffffffffffffffffffffffffffffffffffffffff1673ffffffffffffffffffffffffffffffffffffffff168152602001908152602001600020600082825403925050819055506001600360008473ffffffffffffffffffffffffffffffffffffffff1673ffffffffffffffffffffffffffffffffffffffff16815260200190815260200160002060008282540192505081905550816002600083815260200190815260200160002060006101000a81548173ffffffffffffffffffffffffffffffffffffffff021916908373ffffffffffffffffffffffffffffffffffffffff160217905550808273ffffffffffffffffffffffffffffffffffffffff168473ffffffffffffffffffffffffffffffffffffffff167fddf252ad1be2c89b69c2b068fc378daa952ba7f163c4a11628f55a4df523b3ef60405160405180910390a4611f8f83838360016127d3565b505050565b611f9c611b45565b73ffffffffffffffffffffffffffffffffffffffff16611fba611274565b73ffffffffffffffffffffffffffffffffffffffff1614612010576040517f08c379a000000000000000000000000000000000000000000000000000000000815260040161200790614ac4565b60405180910390fd5b565b600081600001549050919050565b6001816000016000828254019250508190555050565b60006002600083815260200190815260200160002060009054906101000a900473ffffffffffffffffffffffffffffffffffffffff169050919050565b61208d8282604051806020016040528060008152506127d9565b5050565b6000600660009054906101000a900473ffffffffffffffffffffffffffffffffffffffff16905081600660006101000a81548173ffffffffffffffffffffffffffffffffffffffff021916908373ffffffffffffffffffffffffffffffffffffffff1602179055508173ffffffffffffffffffffffffffffffffffffffff168173ffffffffffffffffffffffffffffffffffffffff167f8be0079c531659141344cd1fd0a4f28419497f9722a3daafe3b4186f6b6457e060405160405180910390a35050565b8173ffffffffffffffffffffffffffffffffffffffff168373ffffffffffffffffffffffffffffffffffffffff16036121c5576040517f08c379a00000000000000000000000000000000000000000000000000000000081526004016121bc90614b30565b60405180910390fd5b80600560008573ffffffffffffffffffffffffffffffffffffffff1673ffffffffffffffffffffffffffffffffffffffff16815260200190815260200160002060008473ffffffffffffffffffffffffffffffffffffffff1673ffffffffffffffffffffffffffffffffffffffff16815260200190815260200160002060006101000a81548160ff0219169083151502179055508173ffffffffffffffffffffffffffffffffffffffff168373ffffffffffffffffffffffffffffffffffffffff167f17307eab39ab6107e8899845ad3d59bd9653f200f220920489ca2b5937696c31836040516122b691906132f7565b60405180910390a3505050565b6122ce848484611c9b565b6122da84848484612834565b612319576040517f08c379a000000000000000000000000000000000000000000000000000000000815260040161231090614bc2565b60405180910390fd5b50505050565b60008073ffffffffffffffffffffffffffffffffffffffff1661234183612036565b73ffffffffffffffffffffffffffffffffffffffff1614159050919050565b60606000600161236f846129bb565b01905060008167ffffffffffffffff81111561238e5761238d613576565b5b6040519080825280601f01601f1916602001820160405280156123c05781602001600182028036833780820191505090505b509050600082602001820190505b600115612423578080600190039150507f3031323334353637383961626364656600000000000000000000000000000000600a86061a8153600a8581612417576124166142e9565b5b049450600085036123ce575b819350505050919050565b606060008251036124505760405180602001604052806000815250905061258c565b6000604051806060016040528060408152602001614e5f604091399050600060036002855161247f9190613cb6565b6124899190614318565b600461249591906142a7565b67ffffffffffffffff8111156124ae576124ad613576565b5b6040519080825280601f01601f1916602001820160405280156124e05781602001600182028036833780820191505090505b509050600182016020820185865187015b8082101561254c576003820191508151603f8160121c168501518453600184019350603f81600c1c168501518453600184019350603f8160061c168501518453600184019350603f81168501518453600184019350506124f1565b5050600386510660018114612568576002811461257b57612583565b603d6001830353603d6002830353612583565b603d60018303535b50505080925050505b919050565b600061259c82610f05565b90506125ac8160008460016127c1565b6125b582610f05565b90506004600083815260200190815260200160002060006101000a81549073ffffffffffffffffffffffffffffffffffffffff02191690556001600360008373ffffffffffffffffffffffffffffffffffffffff1673ffffffffffffffffffffffffffffffffffffffff168152602001908152602001600020600082825403925050819055506002600083815260200190815260200160002060006101000a81549073ffffffffffffffffffffffffffffffffffffffff021916905581600073ffffffffffffffffffffffffffffffffffffffff168273ffffffffffffffffffffffffffffffffffffffff167fddf252ad1be2c89b69c2b068fc378daa952ba7f163c4a11628f55a4df523b3ef60405160405180910390a46126db8160008460016127d3565b5050565b60007f80ac58cd000000000000000000000000000000000000000000000000000000007bffffffffffffffffffffffffffffffffffffffffffffffffffffffff1916827bffffffffffffffffffffffffffffffffffffffffffffffffffffffff191614806127aa57507f5b5e139f000000000000000000000000000000000000000000000000000000007bffffffffffffffffffffffffffffffffffffffffffffffffffffffff1916827bffffffffffffffffffffffffffffffffffffffffffffffffffffffff1916145b806127ba57506127b982612b0e565b5b9050919050565b6127cd84848484612b78565b50505050565b50505050565b6127e38383612cd6565b6127f06000848484612834565b61282f576040517f08c379a000000000000000000000000000000000000000000000000000000000815260040161282690614bc2565b60405180910390fd5b505050565b60006128558473ffffffffffffffffffffffffffffffffffffffff16612ef3565b156129ae578373ffffffffffffffffffffffffffffffffffffffff1663150b7a0261287e611b45565b8786866040518563ffffffff1660e01b81526004016128a09493929190614c37565b6020604051808303816000875af19250505080156128dc57506040513d601f19601f820116820180604052508101906128d99190614c98565b60015b61295e573d806000811461290c576040519150601f19603f3d011682016040523d82523d6000602084013e612911565b606091505b506000815103612956576040517f08c379a000000000000000000000000000000000000000000000000000000000815260040161294d90614bc2565b60405180910390fd5b805181602001fd5b63150b7a0260e01b7bffffffffffffffffffffffffffffffffffffffffffffffffffffffff1916817bffffffffffffffffffffffffffffffffffffffffffffffffffffffff1916149150506129b3565b600190505b949350505050565b600080600090507a184f03e93ff9f4daa797ed6e38ed64bf6a1f0100000000000000008310612a19577a184f03e93ff9f4daa797ed6e38ed64bf6a1f0100000000000000008381612a0f57612a0e6142e9565b5b0492506040810190505b6d04ee2d6d415b85acef81000000008310612a56576d04ee2d6d415b85acef81000000008381612a4c57612a4b6142e9565b5b0492506020810190505b662386f26fc100008310612a8557662386f26fc100008381612a7b57612a7a6142e9565b5b0492506010810190505b6305f5e1008310612aae576305f5e1008381612aa457612aa36142e9565b5b0492506008810190505b6127108310612ad3576127108381612ac957612ac86142e9565b5b0492506004810190505b60648310612af65760648381612aec57612aeb6142e9565b5b0492506002810190505b600a8310612b05576001810190505b80915050919050565b60007f01ffc9a7000000000000000000000000000000000000000000000000000000007bffffffffffffffffffffffffffffffffffffffffffffffffffffffff1916827bffffffffffffffffffffffffffffffffffffffffffffffffffffffff1916149050919050565b612b8484848484612f16565b6001811115612bc8576040517f08c379a0000000000000000000000000000000000000000000000000000000008152600401612bbf90614d37565b60405180910390fd5b6000829050600073ffffffffffffffffffffffffffffffffffffffff168573ffffffffffffffffffffffffffffffffffffffff1603612c0f57612c0a81612f1c565b612c4e565b8373ffffffffffffffffffffffffffffffffffffffff168573ffffffffffffffffffffffffffffffffffffffff1614612c4d57612c4c8582612f65565b5b5b600073ffffffffffffffffffffffffffffffffffffffff168473ffffffffffffffffffffffffffffffffffffffff1603612c9057612c8b816130d2565b612ccf565b8473ffffffffffffffffffffffffffffffffffffffff168473ffffffffffffffffffffffffffffffffffffffff1614612cce57612ccd84826131a3565b5b5b5050505050565b600073ffffffffffffffffffffffffffffffffffffffff168273ffffffffffffffffffffffffffffffffffffffff1603612d45576040517f08c379a0000000000000000000000000000000000000000000000000000000008152600401612d3c90614da3565b60405180910390fd5b612d4e8161231f565b15612d8e576040517f08c379a0000000000000000000000000000000000000000000000000000000008152600401612d8590614e0f565b60405180910390fd5b612d9c6000838360016127c1565b612da58161231f565b15612de5576040517f08c379a0000000000000000000000000000000000000000000000000000000008152600401612ddc90614e0f565b60405180910390fd5b6001600360008473ffffffffffffffffffffffffffffffffffffffff1673ffffffffffffffffffffffffffffffffffffffff16815260200190815260200160002060008282540192505081905550816002600083815260200190815260200160002060006101000a81548173ffffffffffffffffffffffffffffffffffffffff021916908373ffffffffffffffffffffffffffffffffffffffff160217905550808273ffffffffffffffffffffffffffffffffffffffff16600073ffffffffffffffffffffffffffffffffffffffff167fddf252ad1be2c89b69c2b068fc378daa952ba7f163c4a11628f55a4df523b3ef60405160405180910390a4612eef6000838360016127d3565b5050565b6000808273ffffffffffffffffffffffffffffffffffffffff163b119050919050565b50505050565b600980549050600a600083815260200190815260200160002081905550600981908060018154018082558091505060019003906000526020600020016000909190919091505550565b60006001612f7284610fd9565b612f7c9190614349565b9050600060086000848152602001908152602001600020549050818114613061576000600760008673ffffffffffffffffffffffffffffffffffffffff1673ffffffffffffffffffffffffffffffffffffffff168152602001908152602001600020600084815260200190815260200160002054905080600760008773ffffffffffffffffffffffffffffffffffffffff1673ffffffffffffffffffffffffffffffffffffffff168152602001908152602001600020600084815260200190815260200160002081905550816008600083815260200190815260200160002081905550505b6008600084815260200190815260200160002060009055600760008573ffffffffffffffffffffffffffffffffffffffff1673ffffffffffffffffffffffffffffffffffffffff16815260200190815260200160002060008381526020019081526020016000206000905550505050565b600060016009805490506130e69190614349565b90506000600a60008481526020019081526020016000205490506000600983815481106131165761311561415a565b5b9060005260206000200154905080600983815481106131385761313761415a565b5b906000526020600020018190555081600a600083815260200190815260200160002081905550600a600085815260200190815260200160002060009055600980548061318757613186614e2f565b5b6001900381819060005260206000200160009055905550505050565b60006131ae83610fd9565b905081600760008573ffffffffffffffffffffffffffffffffffffffff1673ffffffffffffffffffffffffffffffffffffffff168152602001908152602001600020600083815260200190815260200160002081905550806008600084815260200190815260200160002081905550505050565b60405180606001604052806060815260200160608152602001606081525090565b6000604051905090565b600080fd5b600080fd5b60007fffffffff0000000000000000000000000000000000000000000000000000000082169050919050565b61328c81613257565b811461329757600080fd5b50565b6000813590506132a981613283565b92915050565b6000602082840312156132c5576132c461324d565b5b60006132d38482850161329a565b91505092915050565b60008115159050919050565b6132f1816132dc565b82525050565b600060208201905061330c60008301846132e8565b92915050565b600081519050919050565b600082825260208201905092915050565b60005b8381101561334c578082015181840152602081019050613331565b60008484015250505050565b6000601f19601f8301169050919050565b600061337482613312565b61337e818561331d565b935061338e81856020860161332e565b61339781613358565b840191505092915050565b600060208201905081810360008301526133bc8184613369565b905092915050565b6000819050919050565b6133d7816133c4565b81146133e257600080fd5b50565b6000813590506133f4816133ce565b92915050565b6000602082840312156134105761340f61324d565b5b600061341e848285016133e5565b91505092915050565b600073ffffffffffffffffffffffffffffffffffffffff82169050919050565b600061345282613427565b9050919050565b61346281613447565b82525050565b600060208201905061347d6000830184613459565b92915050565b61348c81613447565b811461349757600080fd5b50565b6000813590506134a981613483565b92915050565b600080604083850312156134c6576134c561324d565b5b60006134d48582860161349a565b92505060206134e5858286016133e5565b9150509250929050565b6134f8816133c4565b82525050565b600060208201905061351360008301846134ef565b92915050565b6000806000606084860312156135325761353161324d565b5b60006135408682870161349a565b93505060206135518682870161349a565b9250506040613562868287016133e5565b9150509250925092565b600080fd5b600080fd5b7f4e487b7100000000000000000000000000000000000000000000000000000000600052604160045260246000fd5b6135ae82613358565b810181811067ffffffffffffffff821117156135cd576135cc613576565b5b80604052505050565b60006135e0613243565b90506135ec82826135a5565b919050565b600067ffffffffffffffff82111561360c5761360b613576565b5b61361582613358565b9050602081019050919050565b82818337600083830152505050565b600061364461363f846135f1565b6135d6565b9050828152602081018484840111156136605761365f613571565b5b61366b848285613622565b509392505050565b600082601f8301126136885761368761356c565b5b8135613698848260208601613631565b91505092915050565b6000806000606084860312156136ba576136b961324d565b5b600084013567ffffffffffffffff8111156136d8576136d7613252565b5b6136e486828701613673565b935050602084013567ffffffffffffffff81111561370557613704613252565b5b61371186828701613673565b925050604084013567ffffffffffffffff81111561373257613731613252565b5b61373e86828701613673565b9150509250925092565b600061375382613427565b9050919050565b61376381613748565b811461376e57600080fd5b50565b6000813590506137808161375a565b92915050565b6000806040838503121561379d5761379c61324d565b5b60006137ab85828601613771565b92505060206137bc858286016133e5565b9150509250929050565b6000602082840312156137dc576137db61324d565b5b60006137ea8482850161349a565b91505092915050565b600082825260208201905092915050565b600061380f82613312565b61381981856137f3565b935061382981856020860161332e565b61383281613358565b840191505092915050565b6000606083016000830151848203600086015261385a8282613804565b915050602083015184820360208601526138748282613804565b9150506040830151848203604086015261388e8282613804565b9150508091505092915050565b600060208201905081810360008301526138b5818461383d565b905092915050565b6138c681613748565b82525050565b60006020820190506138e160008301846138bd565b92915050565b6138f0816132dc565b81146138fb57600080fd5b50565b60008135905061390d816138e7565b92915050565b6000806040838503121561392a5761392961324d565b5b60006139388582860161349a565b9250506020613949858286016138fe565b9150509250929050565b600067ffffffffffffffff82111561396e5761396d613576565b5b61397782613358565b9050602081019050919050565b600061399761399284613953565b6135d6565b9050828152602081018484840111156139b3576139b2613571565b5b6139be848285613622565b509392505050565b600082601f8301126139db576139da61356c565b5b81356139eb848260208601613984565b91505092915050565b60008060008060808587031215613a0e57613a0d61324d565b5b6000613a1c8782880161349a565b9450506020613a2d8782880161349a565b9350506040613a3e878288016133e5565b925050606085013567ffffffffffffffff811115613a5f57613a5e613252565b5b613a6b878288016139c6565b91505092959194509250565b60006060820190508181036000830152613a918186613369565b90508181036020830152613aa58185613369565b90508181036040830152613ab98184613369565b9050949350505050565b60008060408385031215613ada57613ad961324d565b5b6000613ae88582860161349a565b9250506020613af98582860161349a565b9150509250929050565b7f4e487b7100000000000000000000000000000000000000000000000000000000600052602260045260246000fd5b60006002820490506001821680613b4a57607f821691505b602082108103613b5d57613b5c613b03565b5b50919050565b7f4552433732313a20617070726f76616c20746f2063757272656e74206f776e6560008201527f7200000000000000000000000000000000000000000000000000000000000000602082015250565b6000613bbf60218361331d565b9150613bca82613b63565b604082019050919050565b60006020820190508181036000830152613bee81613bb2565b9050919050565b7f4552433732313a20617070726f76652063616c6c6572206973206e6f7420746f60008201527f6b656e206f776e6572206f7220617070726f76656420666f7220616c6c000000602082015250565b6000613c51603d8361331d565b9150613c5c82613bf5565b604082019050919050565b60006020820190508181036000830152613c8081613c44565b9050919050565b7f4e487b7100000000000000000000000000000000000000000000000000000000600052601160045260246000fd5b6000613cc1826133c4565b9150613ccc836133c4565b9250828201905080821115613ce457613ce3613c87565b5b92915050565b6000819050919050565b613d05613d00826133c4565b613cea565b82525050565b6000613d178284613cf4565b60208201915081905092915050565b7f4552433732313a2063616c6c6572206973206e6f7420746f6b656e206f776e6560008201527f72206f7220617070726f76656400000000000000000000000000000000000000602082015250565b6000613d82602d8361331d565b9150613d8d82613d26565b604082019050919050565b60006020820190508181036000830152613db181613d75565b9050919050565b60008190508160005260206000209050919050565b60006020601f8301049050919050565b600082821b905092915050565b600060088302613e1a7fffffffffffffffffffffffffffffffffffffffffffffffffffffffffffffffff82613ddd565b613e248683613ddd565b95508019841693508086168417925050509392505050565b6000819050919050565b6000613e61613e5c613e57846133c4565b613e3c565b6133c4565b9050919050565b6000819050919050565b613e7b83613e46565b613e8f613e8782613e68565b848454613dea565b825550505050565b600090565b613ea4613e97565b613eaf818484613e72565b505050565b5b81811015613ed357613ec8600082613e9c565b600181019050613eb5565b5050565b601f821115613f1857613ee981613db8565b613ef284613dcd565b81016020851015613f01578190505b613f15613f0d85613dcd565b830182613eb4565b50505b505050565b600082821c905092915050565b6000613f3b60001984600802613f1d565b1980831691505092915050565b6000613f548383613f2a565b9150826002028217905092915050565b613f6d82613312565b67ffffffffffffffff811115613f8657613f85613576565b5b613f908254613b32565b613f9b828285613ed7565b600060209050601f831160018114613fce5760008415613fbc578287015190505b613fc68582613f48565b86555061402e565b601f198416613fdc86613db8565b60005b8281101561400457848901518255600182019150602085019450602081019050613fdf565b86831015614021578489015161401d601f891682613f2a565b8355505b6001600288020188555050505b505050505050565b7f455243373231456e756d657261626c653a206f776e657220696e646578206f7560008201527f74206f6620626f756e6473000000000000000000000000000000000000000000602082015250565b6000614092602b8361331d565b915061409d82614036565b604082019050919050565b600060208201905081810360008301526140c181614085565b9050919050565b7f455243373231456e756d657261626c653a20676c6f62616c20696e646578206f60008201527f7574206f6620626f756e64730000000000000000000000000000000000000000602082015250565b6000614124602c8361331d565b915061412f826140c8565b604082019050919050565b6000602082019050818103600083015261415381614117565b9050919050565b7f4e487b7100000000000000000000000000000000000000000000000000000000600052603260045260246000fd5b7f5265656e7472616e637920446574656374656400000000000000000000000000600082015250565b60006141bf60138361331d565b91506141ca82614189565b602082019050919050565b600060208201905081810360008301526141ee816141b2565b9050919050565b600081905092915050565b50565b60006142106000836141f5565b915061421b82614200565b600082019050919050565b600061423182614203565b9150819050919050565b7f5472616e73616363696f6e206661696c65640000000000000000000000000000600082015250565b600061427160128361331d565b915061427c8261423b565b602082019050919050565b600060208201905081810360008301526142a081614264565b9050919050565b60006142b2826133c4565b91506142bd836133c4565b92508282026142cb816133c4565b915082820484148315176142e2576142e1613c87565b5b5092915050565b7f4e487b7100000000000000000000000000000000000000000000000000000000600052601260045260246000fd5b6000614323826133c4565b915061432e836133c4565b92508261433e5761433d6142e9565b5b828204905092915050565b6000614354826133c4565b915061435f836133c4565b925082820390508181111561437757614376613c87565b5b92915050565b7f4552433732313a20696e76616c696420746f6b656e2049440000000000000000600082015250565b60006143b360188361331d565b91506143be8261437d565b602082019050919050565b600060208201905081810360008301526143e2816143a6565b9050919050565b7f4552433732313a2061646472657373207a65726f206973206e6f74206120766160008201527f6c6964206f776e65720000000000000000000000000000000000000000000000602082015250565b600061444560298361331d565b9150614450826143e9565b604082019050919050565b6000602082019050818103600083015261447481614438565b9050919050565b7f5061796d656e74204661696c65642c20436865636b20796f75722062616c616e60008201527f6365000000000000000000000000000000000000000000000000000000000000602082015250565b60006144d760228361331d565b91506144e28261447b565b604082019050919050565b60006020820190508181036000830152614506816144ca565b9050919050565b7f5061796d656e74204661696c6564000000000000000000000000000000000000600082015250565b6000614543600e8361331d565b915061454e8261450d565b602082019050919050565b6000602082019050818103600083015261457281614536565b9050919050565b7f455243373231204d657461646174613a2055524920717565727920666f72206e60008201527f6f6e6578697374656e7420746f6b656e00000000000000000000000000000000602082015250565b60006145d560308361331d565b91506145e082614579565b604082019050919050565b60006020820190508181036000830152614604816145c8565b9050919050565b600081905092915050565b7f7b2022746f6b656e496422203a20220000000000000000000000000000000000600082015250565b600061464c600f8361460b565b915061465782614616565b600f82019050919050565b600061466d82613312565b614677818561460b565b935061468781856020860161332e565b80840191505092915050565b7f227d000000000000000000000000000000000000000000000000000000000000600082015250565b60006146c960028361460b565b91506146d482614693565b600282019050919050565b60006146ea8261463f565b91506146f68284614662565b9150614701826146bc565b915081905092915050565b7f596f7520646f6e2774206861766520746f6b656e7320696e207468697320706c60008201527f6174666f726d2c2074727920627579696e67206120746f6b656e206f7220776960208201527f746820616e6f746865722077616c6c6574000000000000000000000000000000604082015250565b600061478e60518361331d565b91506147998261470c565b606082019050919050565b600060208201905081810360008301526147bd81614781565b9050919050565b6000815490506147d381613b32565b9050919050565b8181036147e85750506148c0565b6147f1826147c4565b67ffffffffffffffff81111561480a57614809613576565b5b6148148254613b32565b61481f828285613ed7565b6000601f83116001811461484e576000841561483c578287015490505b6148468582613f48565b8655506148b9565b601f19841661485c87613db8565b965061486786613db8565b60005b8281101561488f5784890154825560018201915060018501945060208101905061486a565b868310156148ac57848901546148a8601f891682613f2a565b8355505b6001600288020188555050505b5050505050505b565b7f4f776e61626c653a206e6577206f776e657220697320746865207a65726f206160008201527f6464726573730000000000000000000000000000000000000000000000000000602082015250565b600061491e60268361331d565b9150614929826148c2565b604082019050919050565b6000602082019050818103600083015261494d81614911565b9050919050565b7f4552433732313a207472616e736665722066726f6d20696e636f72726563742060008201527f6f776e6572000000000000000000000000000000000000000000000000000000602082015250565b60006149b060258361331d565b91506149bb82614954565b604082019050919050565b600060208201905081810360008301526149df816149a3565b9050919050565b7f4552433732313a207472616e7366657220746f20746865207a65726f2061646460008201527f7265737300000000000000000000000000000000000000000000000000000000602082015250565b6000614a4260248361331d565b9150614a4d826149e6565b604082019050919050565b60006020820190508181036000830152614a7181614a35565b9050919050565b7f4f776e61626c653a2063616c6c6572206973206e6f7420746865206f776e6572600082015250565b6000614aae60208361331d565b9150614ab982614a78565b602082019050919050565b60006020820190508181036000830152614add81614aa1565b9050919050565b7f4552433732313a20617070726f766520746f2063616c6c657200000000000000600082015250565b6000614b1a60198361331d565b9150614b2582614ae4565b602082019050919050565b60006020820190508181036000830152614b4981614b0d565b9050919050565b7f4552433732313a207472616e7366657220746f206e6f6e20455243373231526560008201527f63656976657220696d706c656d656e7465720000000000000000000000000000602082015250565b6000614bac60328361331d565b9150614bb782614b50565b604082019050919050565b60006020820190508181036000830152614bdb81614b9f565b9050919050565b600081519050919050565b600082825260208201905092915050565b6000614c0982614be2565b614c138185614bed565b9350614c2381856020860161332e565b614c2c81613358565b840191505092915050565b6000608082019050614c4c6000830187613459565b614c596020830186613459565b614c6660408301856134ef565b8181036060830152614c788184614bfe565b905095945050505050565b600081519050614c9281613283565b92915050565b600060208284031215614cae57614cad61324d565b5b6000614cbc84828501614c83565b91505092915050565b7f455243373231456e756d657261626c653a20636f6e736563757469766520747260008201527f616e7366657273206e6f7420737570706f727465640000000000000000000000602082015250565b6000614d2160358361331d565b9150614d2c82614cc5565b604082019050919050565b60006020820190508181036000830152614d5081614d14565b9050919050565b7f4552433732313a206d696e7420746f20746865207a65726f2061646472657373600082015250565b6000614d8d60208361331d565b9150614d9882614d57565b602082019050919050565b60006020820190508181036000830152614dbc81614d80565b9050919050565b7f4552433732313a20746f6b656e20616c7265616479206d696e74656400000000600082015250565b6000614df9601c8361331d565b9150614e0482614dc3565b602082019050919050565b60006020820190508181036000830152614e2881614dec565b9050919050565b7f4e487b7100000000000000000000000000000000000000000000000000000000600052603160045260246000fdfe4142434445464748494a4b4c4d4e4f505152535455565758595a6162636465666768696a6b6c6d6e6f707172737475767778797a303132333435363738392b2fa264697066735822122056a5c87c812eaee420a7c5388785f829147e82148b4b0a27acfc56a8b2b1a1a364736f6c63430008110033",
  "linkReferences": {},
  "deployedLinkReferences": {}
}