{
  "_format": "hh-sol-artifact-1",
  "contractName": "TokenCreation",
  "sourceName": "contracts/TokenCreation.sol",
  "abi": [
    {
      "inputs": [
        {
          "internalType": "address",
          "name": "_account",
          "type": "address"
        },
        {
          "internalType": "uint256",
          "name": "_tokenId",
          "type": "uint256"
        }
      ],
      "name": "createTokenDNA",
      "outputs": [
        {
          "internalType": "uint256",
          "name": "",
          "type": "uint256"
        }
      ],
      "stateMutability": "pure",
      "type": "function"
    }
  ],
  "bytecode": "0x608060405234801561001057600080fd5b5061029e806100206000396000f3fe608060405234801561001057600080fd5b506004361061002b5760003560e01c8063177e402514610030575b600080fd5b61004a6004803603810190610045919061015f565b610060565b60405161005791906101ae565b60405180910390f35b6000808373ffffffffffffffffffffffffffffffffffffffff168361008591906101f8565b905060008160405160200161009a919061024d565b60405160208183030381529060405290506000818051906020012090508060001c935050505092915050565b600080fd5b600073ffffffffffffffffffffffffffffffffffffffff82169050919050565b60006100f6826100cb565b9050919050565b610106816100eb565b811461011157600080fd5b50565b600081359050610123816100fd565b92915050565b6000819050919050565b61013c81610129565b811461014757600080fd5b50565b60008135905061015981610133565b92915050565b60008060408385031215610176576101756100c6565b5b600061018485828601610114565b92505060206101958582860161014a565b9150509250929050565b6101a881610129565b82525050565b60006020820190506101c3600083018461019f565b92915050565b7f4e487b7100000000000000000000000000000000000000000000000000000000600052601160045260246000fd5b600061020382610129565b915061020e83610129565b9250828201905080821115610226576102256101c9565b5b92915050565b6000819050919050565b61024761024282610129565b61022c565b82525050565b60006102598284610236565b6020820191508190509291505056fea2646970667358221220f3e8b64efceec7a172e2a902e1638fbdbecc32fa988158e99a1077f2dd53cf3064736f6c63430008110033",
  "linkReferences": {},
  "deployedLinkReferences": {}
}