{
  "_format": "hh-sol-artifact-1",
  "contractName": "ReceiveEther",
  "sourceName": "contracts/TransfersProcess.sol",
  "abi": [
    {
      "inputs": [],
      "name": "getBalance",
      "outputs": [
        {
          "internalType": "uint256",
          "name": "",
          "type": "uint256"
        }
      ],
      "stateMutability": "view",
      "type": "function"
    },
    {
      "stateMutability": "payable",
      "type": "receive"
    }
  ],
  "bytecode": "0x608060405234801561001057600080fd5b5060be8061001f6000396000f3fe608060405260043610601f5760003560e01c806312065fe014602a576025565b36602557005b600080fd5b348015603557600080fd5b50603c6050565b60405160479190606f565b60405180910390f35b600047905090565b6000819050919050565b6069816058565b82525050565b6000602082019050608260008301846062565b9291505056fea2646970667358221220e62e0bac3e101bf4530e75b6458d2917fd780be47426c6320ea84337e44586cd64736f6c63430008110033",
  "linkReferences": {},
  "deployedLinkReferences": {}
}