{
  "_format": "hh-sol-artifact-1",
  "contractName": "SendEther",
  "sourceName": "contracts/TransfersProcess.sol",
  "abi": [
    {
      "inputs": [
        {
          "internalType": "address payable",
          "name": "_to",
          "type": "address"
        },
        {
          "internalType": "uint256",
          "name": "_priceToPay",
          "type": "uint256"
        }
      ],
      "name": "sendEther",
      "outputs": [
        {
          "internalType": "bool",
          "name": "",
          "type": "bool"
        }
      ],
      "stateMutability": "payable",
      "type": "function"
    },
    {
      "inputs": [
        {
          "internalType": "address payable",
          "name": "_to",
          "type": "address"
        },
        {
          "internalType": "uint256",
          "name": "_amount",
          "type": "uint256"
        }
      ],
      "name": "withdrawEther",
      "outputs": [
        {
          "internalType": "bool",
          "name": "",
          "type": "bool"
        }
      ],
      "stateMutability": "payable",
      "type": "function"
    }
  ],
  "bytecode": "0x608060405260008060006101000a81548160ff02191690831515021790555034801561002a57600080fd5b506106fa8061003a6000396000f3fe6080604052600436106100295760003560e01c8063522f68151461002e578063c1756a2c1461005e575b600080fd5b61004860048036038101906100439190610421565b61008e565b604051610055919061047c565b60405180910390f35b61007860048036038101906100739190610421565b61020b565b604051610085919061047c565b60405180910390f35b60008060009054906101000a900460ff16156100df576040517f08c379a00000000000000000000000000000000000000000000000000000000081526004016100d6906104f4565b60405180910390fd5b60016000806101000a81548160ff02191690831515021790555081341461013b576040517f08c379a000000000000000000000000000000000000000000000000000000000815260040161013290610586565b60405180910390fd5b60008373ffffffffffffffffffffffffffffffffffffffff1683604051610161906105d7565b60006040518083038185875af1925050503d806000811461019e576040519150601f19603f3d011682016040523d82523d6000602084013e6101a3565b606091505b50509050806101e7576040517f08c379a00000000000000000000000000000000000000000000000000000000081526004016101de90610638565b60405180910390fd5b60008060006101000a81548160ff0219169083151502179055508091505092915050565b60008060009054906101000a900460ff161561025c576040517f08c379a0000000000000000000000000000000000000000000000000000000008152600401610253906104f4565b60405180910390fd5b60016000806101000a81548160ff0219169083151502179055508134146102b8576040517f08c379a00000000000000000000000000000000000000000000000000000000081526004016102af90610586565b60405180910390fd5b60008373ffffffffffffffffffffffffffffffffffffffff16836040516102de906105d7565b60006040518083038185875af1925050503d806000811461031b576040519150601f19603f3d011682016040523d82523d6000602084013e610320565b606091505b5050905080610364576040517f08c379a000000000000000000000000000000000000000000000000000000000815260040161035b906106a4565b60405180910390fd5b60008060006101000a81548160ff0219169083151502179055508091505092915050565b600080fd5b600073ffffffffffffffffffffffffffffffffffffffff82169050919050565b60006103b88261038d565b9050919050565b6103c8816103ad565b81146103d357600080fd5b50565b6000813590506103e5816103bf565b92915050565b6000819050919050565b6103fe816103eb565b811461040957600080fd5b50565b60008135905061041b816103f5565b92915050565b6000806040838503121561043857610437610388565b5b6000610446858286016103d6565b92505060206104578582860161040c565b9150509250929050565b60008115159050919050565b61047681610461565b82525050565b6000602082019050610491600083018461046d565b92915050565b600082825260208201905092915050565b7f5265656e7472616e637920446574656374656400000000000000000000000000600082015250565b60006104de601383610497565b91506104e9826104a8565b602082019050919050565b6000602082019050818103600083015261050d816104d1565b9050919050565b7f456c206d6f6e746f2064656c207061676f206e6f20657320696775616c20616c60008201527f2070726563696f00000000000000000000000000000000000000000000000000602082015250565b6000610570602783610497565b915061057b82610514565b604082019050919050565b6000602082019050818103600083015261059f81610563565b9050919050565b600081905092915050565b50565b60006105c16000836105a6565b91506105cc826105b1565b600082019050919050565b60006105e2826105b4565b9150819050919050565b7f5472616e73616363696f6e206661696c65640000000000000000000000000000600082015250565b6000610622601283610497565b915061062d826105ec565b602082019050919050565b6000602082019050818103600083015261065181610615565b9050919050565b7f5061796d656e74204661696c6564000000000000000000000000000000000000600082015250565b600061068e600e83610497565b915061069982610658565b602082019050919050565b600060208201905081810360008301526106bd81610681565b905091905056fea26469706673582212201a466d84b0ed7d396d22aa6c116619365fe4b61783f211801bd8adcb5eaf154b64736f6c63430008110033",
  "linkReferences": {},
  "deployedLinkReferences": {}
}