{
  "_format": "hh-sol-artifact-1",
  "contractName": "SendEther",
  "sourceName": "contracts/TransfersProcess.sol",
  "abi": [
    {
      "inputs": [
        {
          "internalType": "address payable",
          "name": "_to",
          "type": "address"
        },
        {
          "internalType": "uint256",
          "name": "_priceToPay",
          "type": "uint256"
        }
      ],
      "name": "sendEther",
      "outputs": [
        {
          "internalType": "bool",
          "name": "",
          "type": "bool"
        }
      ],
      "stateMutability": "payable",
      "type": "function"
    },
    {
      "inputs": [
        {
          "internalType": "address payable",
          "name": "_to",
          "type": "address"
        },
        {
          "internalType": "uint256",
          "name": "_amount",
          "type": "uint256"
        }
      ],
      "name": "withdrawEther",
      "outputs": [
        {
          "internalType": "bool",
          "name": "",
          "type": "bool"
        }
      ],
      "stateMutability": "payable",
      "type": "function"
    }
  ],
  "bytecode": "0x608060405260008060006101000a81548160ff02191690831515021790555034801561002a57600080fd5b506105e48061003a6000396000f3fe6080604052600436106100295760003560e01c8063522f68151461002e578063c1756a2c1461005e575b600080fd5b6100486004803603810190610043919061039d565b61008e565b60405161005591906103f8565b60405180910390f35b6100786004803603810190610073919061039d565b6101c9565b60405161008591906103f8565b60405180910390f35b60008060009054906101000a900460ff16156100df576040517f08c379a00000000000000000000000000000000000000000000000000000000081526004016100d690610470565b60405180910390fd5b60016000806101000a81548160ff02191690831515021790555060008373ffffffffffffffffffffffffffffffffffffffff168360405161011f906104c1565b60006040518083038185875af1925050503d806000811461015c576040519150601f19603f3d011682016040523d82523d6000602084013e610161565b606091505b50509050806101a5576040517f08c379a000000000000000000000000000000000000000000000000000000000815260040161019c90610522565b60405180910390fd5b60008060006101000a81548160ff0219169083151502179055508091505092915050565b60008060009054906101000a900460ff161561021a576040517f08c379a000000000000000000000000000000000000000000000000000000000815260040161021190610470565b60405180910390fd5b60016000806101000a81548160ff02191690831515021790555060008373ffffffffffffffffffffffffffffffffffffffff168360405161025a906104c1565b60006040518083038185875af1925050503d8060008114610297576040519150601f19603f3d011682016040523d82523d6000602084013e61029c565b606091505b50509050806102e0576040517f08c379a00000000000000000000000000000000000000000000000000000000081526004016102d79061058e565b60405180910390fd5b60008060006101000a81548160ff0219169083151502179055508091505092915050565b600080fd5b600073ffffffffffffffffffffffffffffffffffffffff82169050919050565b600061033482610309565b9050919050565b61034481610329565b811461034f57600080fd5b50565b6000813590506103618161033b565b92915050565b6000819050919050565b61037a81610367565b811461038557600080fd5b50565b60008135905061039781610371565b92915050565b600080604083850312156103b4576103b3610304565b5b60006103c285828601610352565b92505060206103d385828601610388565b9150509250929050565b60008115159050919050565b6103f2816103dd565b82525050565b600060208201905061040d60008301846103e9565b92915050565b600082825260208201905092915050565b7f5265656e7472616e637920446574656374656400000000000000000000000000600082015250565b600061045a601383610413565b915061046582610424565b602082019050919050565b600060208201905081810360008301526104898161044d565b9050919050565b600081905092915050565b50565b60006104ab600083610490565b91506104b68261049b565b600082019050919050565b60006104cc8261049e565b9150819050919050565b7f5472616e73616363696f6e206661696c65640000000000000000000000000000600082015250565b600061050c601283610413565b9150610517826104d6565b602082019050919050565b6000602082019050818103600083015261053b816104ff565b9050919050565b7f5061796d656e74204661696c6564000000000000000000000000000000000000600082015250565b6000610578600e83610413565b915061058382610542565b602082019050919050565b600060208201905081810360008301526105a78161056b565b905091905056fea264697066735822122015f42d6946fc75f1c79a10079a6a3bc2a7a9c74fb6548b6ee132c267f2d8885564736f6c63430008110033",
  "linkReferences": {},
  "deployedLinkReferences": {}
}